:100000000C942E000C942B050C9497050C9403066D
:100010000C946F060C94DB060C944B000C94B20D00
:100020000C944B000C94600D0C9447070C94B30790
:100030000C941F080C948B080C94F7080C9463091B
:100040000C94CF090C943B0A0C94A70A0C94130B44
:100050000C947F0B0C94EB0B0C94570C11241FBECB
:10006000CFEFD4E0DEBFCDBF11E0A0E0B1E0E8E229
:10007000F2E202C005900D92AE31B107D9F724E04B
:10008000AEE1B1E001C01D92A137B207E1F70E94D5
:1000900002040C9412110C940000CF92DF92EF92A4
:1000A000FF920F931F93FC01C480D58081E0C81A92
:1000B000D108D582C482028913890F2EF7E8EF2E6A
:1000C000F3E0FF2EF02D20E030E0A90160E070E0C9
:1000D000CB010E94670E1F910F91FF90EF90DF9070
:1000E000CF900895CF92DF92EF92FF920F931F93DC
:1000F00061307105D1F4FC01C680D780FFEFCF1AC3
:10010000DF0AFC01D782C682028913890F2EFDE720
:10011000EF2EF3E0FF2EF02D20E030E0A90160E0AB
:1001200070E0CB010E94670E1CC062307105C9F4FB
:10013000FC01C084D184FFEFCF1ADF0AFC01D18615
:10014000C086028913890F2EF2E8EF2EF3E0FF2E0E
:10015000F02D20E030E0A90160E070E0CB010E94CA
:10016000670E1F910F91FF90EF90DF90CF90089551
:10017000CF92DF92EF92FF920F931F936130710540
:10018000D1F4FC01C680D780F1E0CF1AD108FC0180
:10019000D782C682028913890F2EFDE7EF2EF3E086
:1001A000FF2EF02D20E030E0A90160E070E0CB01EF
:1001B0000E94670E1CC062307105C9F4FC01C08446
:1001C000D184F1E0CF1AD108FC01D186C086028922
:1001D00013890F2EF2E8EF2EF3E0FF2EF02D20E032
:1001E00030E0A90160E070E0CB010E94670E1F9132
:1001F0000F91FF90EF90DF90CF900895CF92DF9214
:10020000EF92FF920F931F93CF93DF93EC016B015B
:100210000E94B800DB86CA868E859F8501969F87DF
:100220008E87CC80DD808FEFC81AD80ADD82CC8221
:100230000A891B890F2EF7E8EF2EF3E0FF2EF02D31
:1002400020E030E0A90160E070E0CB010E94670E81
:10025000C12CD12C0F2EFDE4EF2EF0E0FF2EF02D5F
:100260008E0120E030E0A9016AE572E682E090E0CC
:100270000E94670EDF91CF911F910F91FF90EF9039
:10028000DF90CF900895CF92DF92EF92FF920F937D
:100290001F93FC011786168615861486008911891E
:1002A000C12CD12C0F2EF0E5EF2EF4E0FF2EF02D17
:1002B00020E030E0A90160E070E0CB010E94670E11
:1002C0001F910F91FF90EF90DF90CF900895CF9204
:1002D000DF92EF92FF920F931F93FC017587648763
:1002E000008911896B010F2EF0E5EF2EF4E0FF2E4F
:1002F000F02D20E030E0A90160E070E0CB010E9429
:10030000670E1F910F91FF90EF90DF90CF900895AF
:10031000CF92DF92EF92FF920F931F93CF93DF93D1
:10032000EC018E819F81181619060CF58E859F852C
:1003300006972CF088859985892B09F050C061E0DB
:1003400070E0CE010E946701C12CD12C0F2EF8E87D
:10035000EF2EF1E0FF2EF02D8E0120E030E0A9011C
:1003600062E17AE780E090E00E94670E3DC08C81F8
:100370009D81892BF1F088859985892BD1F08A851B
:100380009B850197B1F4CE010E944301C12CD12C71
:100390000F2EFDEFEF2EF1E0FF2EF02D8E0120E06D
:1003A00030E0A9016AE572E682E090E00E94670E03
:1003B0001BC0CE010E944301C12CD12C0F2EFDEF9A
:1003C000EF2EF1E0FF2EF02D8E0120E030E0A901AC
:1003D00062E17AE780E090E00E94670E05C08C81C0
:1003E0009D81892B61F6E5CFDF91CF911F910F9110
:1003F000FF90EF90DF90CF900895CF92DF92EF9231
:10040000FF920F931F93CF93DF93EC01888599851B
:10041000181619060CF58E859F8506972CF08E818F
:100420009F81892B09F050C062E070E0CE010E94EC
:100430006701C12CD12C0F2EFDEFEF2EF1E0FF2E26
:10044000F02D8E0120E030E0A90162E17AE780E042
:1004500090E00E94670E3DC08C819D81892BF1F058
:100460008E819F81892BD1F08A859B850297B1F47B
:10047000CE010E944301C12CD12C0F2EF8E8EF2EA3
:10048000F1E0FF2EF02D8E0120E030E0A9016AE5B9
:1004900072E682E090E00E94670E1BC0CE010E94CF
:1004A0004301C12CD12C0F2EF8E8EF2EF1E0FF2EE6
:1004B000F02D8E0120E030E0A90162E17AE780E0D2
:1004C00090E00E94670E05C08C819D81892B61F6AA
:1004D000E5CFDF91CF911F910F91FF90EF90DF90CB
:1004E000CF900895CF92DF92EF92FF920F931F93D8
:1004F000CF93DF93EC010A891B89C12CD12C0F2EDD
:10050000F8E7EF2EF3E0FF2EF02D20E030E0A90118
:1005100060E070E0CB010E94670ECE80DF800A8928
:100520001B890F2EFDE7EF2EF3E0FF2EF02D20E0CC
:1005300030E0A90160E070E0CB010E94670EC88442
:10054000D9840A891B890F2EF2E8EF2EF3E0FF2EE3
:10055000F02D20E030E0A90160E070E0CB010E94C6
:10056000670ECC80DD800A891B890F2EF7E8EF2EFD
:10057000F3E0FF2EF02D20E030E0A90160E070E014
:10058000CB010E94670EC12CD12C0F2EF8E8EF2E64
:10059000F1E0FF2EF02D8E0120E030E0A90160E0B7
:1005A00070E0CB010E94670EDF91CF911F910F91F8
:1005B000FF90EF90DF90CF900895CF93DF93CDB76A
:1005C000DEB766970FB6F894DEBF0FBECDBF6630BC
:1005D0007105E8F596E1E8E0F1E0DE0111960190A1
:1005E0000D929A95E1F790ED980F9A3050F4E82F1C
:1005F000F0E0F097EE0FFF1FEC0FFD1F218132811D
:1006000002C028E230ECFB01F595E795E451FF4F7D
:10061000DB01A170BB2760FF02C06FE001C060EF8B
:10062000AF014C5E5F4F822F8F70329522952F70F5
:1006300023273F702327109711F08295807F9081A8
:100640009623892B808335964E175F0761F7669650
:100650000FB6F894DEBF0FBECDBFDF91CF910895E6
:10066000EF92FF920F931F93CF93DF93EC017B01E7
:10067000CB0164E670E00E94A9100AE010E0B80126
:100680000E94A910862FBE01805D0E94DD02219686
:10069000C701B8010E94A910BE01805D0E94DD0261
:1006A000DF91CF911F910F91FF90EF900895E1E6B8
:1006B000F0E080E8808310828FE08093E70087EB92
:1006C0008093E50087E08093E60080EC8093E4006F
:1006D00081E08093F40008951092C50083E3809335
:1006E000C40088E98093C10086E08093C200089529
:1006F0000E9457030E946C03089580E090E00E94DE
:100700003003089584E090E00E943003089582E071
:1007100090E00E9430030895CF92DF92EF92FF9213
:100720000F931F93CF93DF931F92CDB7DEB7FC01DA
:100730009091C6009983998190FF14C0048115811E
:10074000CC24C394D12C0F2EF2E7EF2EF0E0FF2E35
:10075000F02D20E030E0A90160E070E0CB010E94C4
:10076000670E46C0898181FF14C004811581CC24A5
:10077000C394D12C0F2EFEEFEF2EF0E0FF2EF02DC4
:1007800020E030E0A90160E070E0CB010E94670E3C
:100790002FC0898182FF15C0048115816894CC2403
:1007A000C1F8D12C0F2EF2E7EF2EF0E0FF2EF02D46
:1007B00020E030E0A90160E070E0CB010E94670E0C
:1007C00017C0898183FF14C0048115816894CC24EB
:1007D000C1F8D12C0F2EFEEFEF2EF0E0FF2EF02D02
:1007E00020E030E0A90160E070E0CB010E94670EDC
:1007F0000F90DF91CF911F910F91FF90EF90DF90BD
:10080000CF9008950F931F93CF93DF93CDB7DEB7AB
:10081000A4970FB6F894DEBF0FBECDBF1A8219821F
:100820001C821B821E821D8218861F821A861986D0
:100830001C861B861E861D86188A1F861A8A198AA0
:100840001C8A1B8A1E8A1D8A188E1F8ACE01059655
:100850009A8F898F04979C8F8B8F1E8E1D8E18A266
:100860001F8E8E01075F1F4F1AA309A39CA38BA3A2
:1008700048E06CE873E04C960E94731040E050E052
:1008800062E772E0C8010E948D10A4960FB6F8943A
:10089000DEBF0FBECDBFDF91CF911F910F910895A5
:1008A0006115710521F48AE08093C60008956130D6
:1008B000710521F489E08093C600089562307105C6
:1008C00019F486E08093C6000895CF93DF9300D09B
:1008D00000D0CDB7DEB781E192E021EF32E0FC013C
:1008E000709791838083409682179307C1F7109287
:1008F000E2021092E102ECE4F1E089E691E09183FA
:10090000808386E891E0968F858FA3EAB1E0B3AF4C
:10091000A2AF1D921C92FA83E983EDE4F3E0FC831D
:10092000EB8389819A8106960E94D1108B819C81EC
:10093000E981FA81978B868B918F808F85E090E19A
:10094000948F838F158214827D96FA83E983EB81DD
:10095000FC81E05AFF4FFC83EB8389819A81805CA4
:100960009140F9F6E4EEF1E01182108215821482D2
:1009700013821282E1E6F0E080E880831082109218
:1009800085001092840084E08093810081E0809350
:100990006F000F900F900F900F90DF91CF910895FF
:1009A000CF93DF9300D0CDB7DEB79A838983809150
:1009B00000019091010106960E94D110892B59F4F3
:1009C00089819A81909301018093000161E070E038
:1009D00006960E94F1100F900F90DF91CF9108952D
:1009E0000F931F93CF93DF93E0912601F09127019E
:1009F000309761F18091040190910501009731F1E8
:100A0000C0910201D0910301AA81BB81109779F0B6
:100A1000468157816085718516960D911D912D91A6
:100A20003C911997401B510B620B730B7AF4FC013C
:100A3000208131813093050120930401D183C0834B
:100A400090930301809302010E94D004DF91CF9123
:100A50001F910F9108951F920F920FB60F921124BC
:100A60002F933F934F935F936F937F938F939F93B6
:100A7000AF93BF93EF93FF9320911E0130911F011D
:100A80004091840050918500C901032E000CAA0BEF
:100A9000BB0BDC019927882760E070E0842B952B45
:100AA000A62BB72B8093200190932101A0932201C4
:100AB000B0932301B09B1BC04091840050918500EE
:100AC000C9010196092E000CAA0BBB0BDC0199276A
:100AD000882760E070E0842B952BA62BB72B8093A2
:100AE000200190932101A0932201B0932301E09172
:100AF000C001F091C101309739F060E070E0809161
:100B000028019091290109950E94F004FF91EF912D
:100B1000BF91AF919F918F917F916F915F914F9115
:100B20003F912F910F900FBE0F901F9018951F921D
:100B30000F920FB60F9211242F933F934F935F9311
:100B40006F937F938F939F93AF93BF93EF93FF9395
:100B500020911E0130911F01409184005091850029
:100B6000C901032E000CAA0BBB0BDC0199278827B7
:100B700060E070E0842B952BA62BB72B809320018F
:100B800090932101A0932201B0932301B09B1BC03D
:100B90004091840050918500C9010196092E000CF6
:100BA000AA0BBB0BDC019927882760E070E0842B3F
:100BB000952BA62BB72B8093200190932101A09316
:100BC0002201B0932301E091C201F091C30130975B
:100BD00039F061E070E080912A0190912B01099534
:100BE0000E94F004FF91EF91BF91AF919F918F917F
:100BF0007F916F915F914F913F912F910F900FBE19
:100C00000F901F9018951F920F920FB60F921124FC
:100C10002F933F934F935F936F937F938F939F9304
:100C2000AF93BF93EF93FF9320911E0130911F016B
:100C30004091840050918500C901032E000CAA0B3D
:100C4000BB0BDC019927882760E070E0842B952B93
:100C5000A62BB72B8093200190932101A093220112
:100C6000B0932301B09B1BC040918400509185003C
:100C7000C9010196092E000CAA0BBB0BDC019927B8
:100C8000882760E070E0842B952BA62BB72B8093F0
:100C9000200190932101A0932201B0932301E091C0
:100CA000C401F091C501309739F062E070E08091A5
:100CB0002C0190912D0109950E94F004FF91EF9174
:100CC000BF91AF919F918F917F916F915F914F9164
:100CD0003F912F910F900FBE0F901F9018951F926C
:100CE0000F920FB60F9211242F933F934F935F9360
:100CF0006F937F938F939F93AF93BF93EF93FF93E4
:100D000020911E0130911F01409184005091850077
:100D1000C901032E000CAA0BBB0BDC019927882705
:100D200060E070E0842B952BA62BB72B80932001DD
:100D300090932101A0932201B0932301B09B1BC08B
:100D40004091840050918500C9010196092E000C44
:100D5000AA0BBB0BDC019927882760E070E0842B8D
:100D6000952BA62BB72B8093200190932101A09364
:100D70002201B0932301E091C601F091C7013097A1
:100D800039F063E070E080912E0190912F01099578
:100D90000E94F004FF91EF91BF91AF919F918F91CD
:100DA0007F916F915F914F913F912F910F900FBE67
:100DB0000F901F9018951F920F920FB60F9211244B
:100DC0002F933F934F935F936F937F938F939F9353
:100DD000AF93BF93EF93FF9320911E0130911F01BA
:100DE0004091840050918500C901032E000CAA0B8C
:100DF000BB0BDC019927882760E070E0842B952BE2
:100E0000A62BB72B8093200190932101A093220160
:100E1000B0932301B09B1BC040918400509185008A
:100E2000C9010196092E000CAA0BBB0BDC01992706
:100E3000882760E070E0842B952BA62BB72B80933E
:100E4000200190932101A0932201B0932301E0910E
:100E5000C801F091C901309739F064E070E08091E9
:100E600030019091310109950E94F004FF91EF91BA
:100E7000BF91AF919F918F917F916F915F914F91B2
:100E80003F912F910F900FBE0F901F9018951F92BA
:100E90000F920FB60F9211242F933F934F935F93AE
:100EA0006F937F938F939F93AF93BF93EF93FF9332
:100EB00020911E0130911F014091840050918500C6
:100EC000C901032E000CAA0BBB0BDC019927882754
:100ED00060E070E0842B952BA62BB72B809320012C
:100EE00090932101A0932201B0932301B09B1BC0DA
:100EF0004091840050918500C9010196092E000C93
:100F0000AA0BBB0BDC019927882760E070E0842BDB
:100F1000952BA62BB72B8093200190932101A093B2
:100F20002201B0932301E091CA01F091CB013097E7
:100F300039F065E070E080913201909133010995BC
:100F40000E94F004FF91EF91BF91AF919F918F911B
:100F50007F916F915F914F913F912F910F900FBEB5
:100F60000F901F9018951F920F920FB60F92112499
:100F70002F933F934F935F936F937F938F939F93A1
:100F8000AF93BF93EF93FF9320911E0130911F0108
:100F90004091840050918500C901032E000CAA0BDA
:100FA000BB0BDC019927882760E070E0842B952B30
:100FB000A62BB72B8093200190932101A0932201AF
:100FC000B0932301B09B1BC04091840050918500D9
:100FD000C9010196092E000CAA0BBB0BDC01992755
:100FE000882760E070E0842B952BA62BB72B80938D
:100FF000200190932101A0932201B0932301E0915D
:10100000CC01F091CD01309739F066E070E080912D
:1010100034019091350109950E94F004FF91EF9100
:10102000BF91AF919F918F917F916F915F914F9100
:101030003F912F910F900FBE0F901F9018951F9208
:101040000F920FB60F9211242F933F934F935F93FC
:101050006F937F938F939F93AF93BF93EF93FF9380
:1010600020911E0130911F01409184005091850014
:10107000C901032E000CAA0BBB0BDC0199278827A2
:1010800060E070E0842B952BA62BB72B809320017A
:1010900090932101A0932201B0932301B09B1BC028
:1010A0004091840050918500C9010196092E000CE1
:1010B000AA0BBB0BDC019927882760E070E0842B2A
:1010C000952BA62BB72B8093200190932101A09301
:1010D0002201B0932301E091CE01F091CF0130972E
:1010E00039F067E070E08091360190913701099501
:1010F0000E94F004FF91EF91BF91AF919F918F916A
:101100007F916F915F914F913F912F910F900FBE03
:101110000F901F9018951F920F920FB60F921124E7
:101120002F933F934F935F936F937F938F939F93EF
:10113000AF93BF93EF93FF9320911E0130911F0156
:101140004091840050918500C901032E000CAA0B28
:10115000BB0BDC019927882760E070E0842B952B7E
:10116000A62BB72B8093200190932101A0932201FD
:10117000B0932301B09B1BC0409184005091850027
:10118000C9010196092E000CAA0BBB0BDC019927A3
:10119000882760E070E0842B952BA62BB72B8093DB
:1011A000200190932101A0932201B0932301E091AB
:1011B000D001F091D101309739F068E070E0809172
:1011C00038019091390109950E94F004FF91EF9147
:1011D000BF91AF919F918F917F916F915F914F914F
:1011E0003F912F910F900FBE0F901F9018951F9257
:1011F0000F920FB60F9211242F933F934F935F934B
:101200006F937F938F939F93AF93BF93EF93FF93CE
:1012100020911E0130911F01409184005091850062
:10122000C901032E000CAA0BBB0BDC0199278827F0
:1012300060E070E0842B952BA62BB72B80932001C8
:1012400090932101A0932201B0932301B09B1BC076
:101250004091840050918500C9010196092E000C2F
:10126000AA0BBB0BDC019927882760E070E0842B78
:10127000952BA62BB72B8093200190932101A0934F
:101280002201B0932301E091D201F091D301309774
:1012900039F069E070E080913A0190913B01099545
:1012A0000E94F004FF91EF91BF91AF919F918F91B8
:1012B0007F916F915F914F913F912F910F900FBE52
:1012C0000F901F9018951F920F920FB60F92112436
:1012D0002F933F934F935F936F937F938F939F933E
:1012E000AF93BF93EF93FF9320911E0130911F01A5
:1012F0004091840050918500C901032E000CAA0B77
:10130000BB0BDC019927882760E070E0842B952BCC
:10131000A62BB72B8093200190932101A09322014B
:10132000B0932301B09B1BC0409184005091850075
:10133000C9010196092E000CAA0BBB0BDC019927F1
:10134000882760E070E0842B952BA62BB72B809329
:10135000200190932101A0932201B0932301E091F9
:10136000D401F091D501309739F06AE070E08091B6
:101370003C0190913D0109950E94F004FF91EF918D
:10138000BF91AF919F918F917F916F915F914F919D
:101390003F912F910F900FBE0F901F9018951F92A5
:1013A0000F920FB60F9211242F933F934F935F9399
:1013B0006F937F938F939F93AF93BF93EF93FF931D
:1013C00020911E0130911F014091840050918500B1
:1013D000C901032E000CAA0BBB0BDC01992788273F
:1013E00060E070E0842B952BA62BB72B8093200117
:1013F00090932101A0932201B0932301B09B1BC0C5
:101400004091840050918500C9010196092E000C7D
:10141000AA0BBB0BDC019927882760E070E0842BC6
:10142000952BA62BB72B8093200190932101A0939D
:101430002201B0932301E091D601F091D7013097BA
:1014400039F06BE070E080913E0190913F01099589
:101450000E94F004FF91EF91BF91AF919F918F9106
:101460007F916F915F914F913F912F910F900FBEA0
:101470000F901F9018951F920F920FB60F92112484
:101480002F933F934F935F936F937F938F939F938C
:10149000AF93BF93EF93FF9320911E0130911F01F3
:1014A0004091840050918500C901032E000CAA0BC5
:1014B000BB0BDC019927882760E070E0842B952B1B
:1014C000A62BB72B8093200190932101A09322019A
:1014D000B0932301B09B1BC04091840050918500C4
:1014E000C9010196092E000CAA0BBB0BDC01992740
:1014F000882760E070E0842B952BA62BB72B809378
:10150000200190932101A0932201B0932301E09147
:10151000D801F091D901309739F06CE070E08091FA
:1015200040019091410109950E94F004FF91EF91D3
:10153000BF91AF919F918F917F916F915F914F91EB
:101540003F912F910F900FBE0F901F9018951F92F3
:101550000F920FB60F9211242F933F934F935F93E7
:101560006F937F938F939F93AF93BF93EF93FF936B
:1015700020911E0130911F014091840050918500FF
:10158000C901032E000CAA0BBB0BDC01992788278D
:1015900060E070E0842B952BA62BB72B8093200165
:1015A00090932101A0932201B0932301B09B1BC013
:1015B0004091840050918500C9010196092E000CCC
:1015C000AA0BBB0BDC019927882760E070E0842B15
:1015D000952BA62BB72B8093200190932101A093EC
:1015E0002201B0932301E091DA01F091DB01309701
:1015F00039F06DE070E080914201909143010995CE
:101600000E94F004FF91EF91BF91AF919F918F9154
:101610007F916F915F914F913F912F910F900FBEEE
:101620000F901F9018951F920F920FB60F921124D2
:101630002F933F934F935F936F937F938F939F93DA
:10164000AF93BF93EF93FF9320911E0130911F0141
:101650004091840050918500C901032E000CAA0B13
:10166000BB0BDC019927882760E070E0842B952B69
:10167000A62BB72B8093200190932101A0932201E8
:10168000B0932301B09B1BC0409184005091850012
:10169000C9010196092E000CAA0BBB0BDC0199278E
:1016A000882760E070E0842B952BA62BB72B8093C6
:1016B000200190932101A0932201B0932301E09196
:1016C000DC01F091DD01309739F06EE070E080913F
:1016D00044019091450109950E94F004FF91EF911A
:1016E000BF91AF919F918F917F916F915F914F913A
:1016F0003F912F910F900FBE0F901F9018951F9242
:101700000F920FB60F9211242F933F934F935F9335
:101710006F937F938F939F93AF93BF93EF93FF93B9
:1017200020911E0130911F0140918400509185004D
:10173000C901032E000CAA0BBB0BDC0199278827DB
:1017400060E070E0842B952BA62BB72B80932001B3
:1017500090932101A0932201B0932301B09B1BC061
:101760004091840050918500C9010196092E000C1A
:10177000AA0BBB0BDC019927882760E070E0842B63
:10178000952BA62BB72B8093200190932101A0933A
:101790002201B0932301E091DE01F091DF01309747
:1017A00039F06FE070E08091460190914701099512
:1017B0000E94F004FF91EF91BF91AF919F918F91A3
:1017C0007F916F915F914F913F912F910F900FBE3D
:1017D0000F901F9018951F920F920FB60F92112421
:1017E0002F933F934F935F936F937F938F939F9329
:1017F000AF93BF93EF93FF9320911E0130911F0190
:101800004091840050918500C901032E000CAA0B61
:10181000BB0BDC019927882760E070E0842B952BB7
:10182000A62BB72B8093200190932101A093220136
:10183000B0932301B09B1BC0409184005091850060
:10184000C9010196092E000CAA0BBB0BDC019927DC
:10185000882760E070E0842B952BA62BB72B809314
:10186000200190932101A0932201B0932301E091E4
:10187000E001F091E101309739F060E170E0809192
:1018800048019091490109950E94F004FF91EF9160
:10189000BF91AF919F918F917F916F915F914F9188
:1018A0003F912F910F900FBE0F901F9018951F9290
:1018B0000F920FB60F9211242F933F934F935F9384
:1018C0006F937F938F939F93AF93BF93EF93FF9308
:1018D00020911E0130911F0140918400509185009C
:1018E000C901032E000CAA0BBB0BDC01992788272A
:1018F00060E070E0842B952BA62BB72B8093200102
:1019000090932101A0932201B0932301B09B1BC0AF
:101910004091840050918500C9010196092E000C68
:10192000AA0BBB0BDC019927882760E070E0842BB1
:10193000952BA62BB72B8093200190932101A09388
:101940002201B0932301E091E201F091E30130978D
:1019500039F061E170E080914A0190914B01099565
:101960000E94F004FF91EF91BF91AF919F918F91F1
:101970007F916F915F914F913F912F910F900FBE8B
:101980000F901F901895EF92FF920F931F93CF9394
:10199000DF937B01EB01A881B981109761F1FC0114
:1019A000068117812085318516964D915D916D9147
:1019B0007C911997041715072607370714F41BC0E5
:1019C000DF01ED91FC911197309749F046815781E5
:1019D0006085718504171507260737078CF7EC011A
:1019E000F983E883109721F4F7019183808307C07E
:1019F0008D939C9304C0EC01B983A883F5CFDF914C
:101A0000CF911F910F91FF90EF900895EF92FF9269
:101A10000F931F93CF93DF937B01EB01A881B981D3
:101A2000109761F1FC0102811381248135811296A6
:101A30004D915D916D917C911597041715072607BF
:101A4000370714F41BC0DF01ED91FC91119730971B
:101A500049F0428153816481758104171507260777
:101A600037078CF7EC01F983E883109721F4F7012D
:101A70009183808307C08D939C9304C0EC01B9834C
:101A8000A883F5CFDF91CF911F910F91FF90EF9039
:101A90000895DC01ED91FC911197309759F48FEF87
:101AA0008093EC008093ED008093EE0081E083BF93
:101AB0008895FDCF208131812D933C93CF010895EE
:101AC0001F920F920FB60F9211242F933F934F93B3
:101AD0005F936F937F938F939F93EF93FF93809187
:101AE0001E0190911F01019690931F0180931E018A
:101AF000E0912401F0912501309701F14281538159
:101B00006481758186179707C9F4CA012091840002
:101B100030918500421B530B4130510529F48091CF
:101B200084009091850001969093890080938800AD
:101B3000EFE6F0E080818260808305C0EFE6F0E0B0
:101B400080818D7F8083FF91EF919F918F917F9115
:101B50006F915F914F913F912F910F900FBE0F901A
:101B60001F9018951F920F920FB60F921124CF92CB
:101B7000DF92EF92FF922F933F934F935F936F9378
:101B80007F938F939F93AF93BF93EF93FF93C090F7
:101B90001E01D0901F012091840030918500B099E2
:101BA0000FC00D2C000CEE08FF08D60199278827DE
:101BB0006901E12CF12CC82AD92AEA2AFB2A15C08E
:101BC00020918400309185008FEFC81AD80A0D2C1F
:101BD000000CEE08FF08D601992788276901E12C3F
:101BE000F12CC82AD92AEA2AFB2AE0912401F09193
:101BF0002501309709F442C082819381A481B58187
:101C00008C199D09AE09BF09181619061A061B067C
:101C1000ECF184E291E00E94490D66E271E00E94DD
:101C2000C30CE0912401F0912501309739F18281B4
:101C30009381A481B5818C199D09AE09BF0918163D
:101C400019061A061B062CF721C09C01409184003E
:101C500050918500841B950B019731F420918400ED
:101C6000309185002F5F3F4F30938900209388008B
:101C7000EFE6F0E080818260808305C0EFE6F0E06F
:101C800080818D7F80830E94F0040CC082819381CB
:101C9000A481B58120911E0130911F012A173B07B5
:101CA00069F7D3CFFF91EF91BF91AF919F918F9142
:101CB0007F916F915F914F913F912F91FF90EF90A6
:101CC000DF90CF900F900FBE0F901F9018953F920E
:101CD0004F925F926F927F928F929F92AF92BF923C
:101CE000CF92DF92EF92FF920F931F93CF93DF93E8
:101CF0002B013C0149015A018FB78078382EF894A6
:101D000086E091E00E94490DEC011B870A87FD8661
:101D1000EC86DF86CE86332061F0E0910001F09101
:101D200001010280F381E02D82819381A481B5813C
:101D300008C08091200190912101A0912201B091D1
:101D40002301480E591E6A1E7B1E4A825B826C82EA
:101D50007D82181419041A041B0444F00F2E8824E1
:101D60008A94982CA82CFFE7BF2EF02D840C951C8C
:101D7000A61CB71C8E829F82A886B98680911E0100
:101D800090911F014091840050918500B0990EC040
:101D9000092E000CAA0BBB0BDC019927882760E0F9
:101DA00070E0842B952BA62BB72B13C020918400B9
:101DB000309185000196092E000CAA0BBB0BDC01AB
:101DC00099278827A90160E070E0842B952BA62B2A
:101DD000B72B481A590A6A0A7B0A14141504160408
:101DE0001704ACF564E271E0CE010E94060DE091AB
:101DF0002401F0912501309721F182819381A48102
:101E0000B58120911E0130911F012A173B07C9F4AB
:101E10009C014091840050918500841B950B019793
:101E200031F420918400309185002F5F3F4F309333
:101E3000890020938800EFE6F0E080818260808353
:101E400041C0EFE6F0E080818D7F80833BC066E299
:101E500071E0CE010E94C30C3320B9F180910401DE
:101E600090910501009781F1E0910201F091030149
:101E7000209126013091270102811381D901169604
:101E80004D915D916D917C911997D80116960D91A8
:101E90001D912D913C911997401B510B620B730BB7
:101EA0009AF4DC012D913C91119730930501209318
:101EB0000401ED93FC9390930301809302010E942F
:101EC000D00402C0332009F07894CE01DF91CF9185
:101ED0001F910F91FF90EF90DF90CF90BF90AF9048
:101EE0009F908F907F906F905F904F903F9008955C
:101EF000CF92DF92EF92FF920F931F93CF93DF93D6
:101F0000EC017B016A011FB71078F894A881B981B0
:101F1000109761F11496ED91FC911597309741F06F
:101F2000A081B1811496ED91FC9115973097C1F77E
:101F300020910001309101012A173B0721F0112364
:101F400009F43DC007C0112309F43CC078948FEF19
:101F50009FEF52C08A819B810097D1F1FC011582CD
:101F6000148236C0789480E090E046C080910001F1
:101F70009091010199838883112329F08A819B81A3
:101F8000019709F07894B601CE01F7010995F82E72
:101F9000092F8FB7F894198218828A819B81823029
:101FA000910538F01B821A82FC01158214820E946E
:101FB000D004112351F078948F2D902F1DC08FEFF6
:101FC0009FEF1AC08FEF9FEF17C08F2D902F14C077
:101FD0003B832A83F901D583C483CD010E94D004B9
:101FE000E0910001F091010182819381892B09F434
:101FF000B9CFF983E883C2CFDF91CF911F910F91C1
:10200000FF90EF90DF90CF90089500910001109124
:10201000010186E291E00E94490DEC01D80113967E
:102020009C938E93129778944E855F856C857D8501
:102030008A859B850E94780F8FB7F894809106015E
:102040009091070199838883D0930701C09306017B
:10205000E0910201F091030100811181E8012A81E0
:102060003B81A0912601B09127011097C1F0211565
:10207000310559F216968D919D910D90BC91A02D30
:10208000E9014E815F8168857985841B950BA60BDC
:10209000B70B181619061A061B060CF0B6CF1093CC
:1020A0000301009302018091040190910501918345
:1020B0008083F0930501E0930401A0910201B091A7
:1020C00003011496ED91FC911597309741F0A08192
:1020D000B1811496ED91FC9115973097C1F7CD0120
:1020E0000E94D00492CF4231B8F42FB7F89450E058
:1020F000440F551FFA01E85DFE4F91838083FA017A
:10210000E054FE4F7183608341E050E0FC01538353
:10211000428322230CF4789408958C017B016A0198
:102120008FB7F8940E9465047894E114F10441F0AB
:1021300020E030E0A90160E070E0CB010E94670E72
:102140008FB7F8940E94F004789481E083BF88955B
:10215000FDCF97FB072E16F4009407D077FD09D02A
:102160000E94BD1007FC05D03EF4909581959F4FCD
:102170000895709561957F4F0895AA1BBB1B51E18F
:1021800007C0AA1FBB1FA617B70710F0A61BB70BE7
:10219000881F991F5A95A9F780959095BC01CD018C
:1021A0000895DC012D923D924D925D926D927D924B
:1021B0008D929D92AD92BD92CD92DD92ED92FD9267
:1021C0000D931D93CD93DD93FF91EF918DB78D937B
:1021D0008EB78D938FB78D93ED93FD9388279927B5
:1021E0000994DC01CB0181309105811D2D903D903A
:1021F0004D905D906D907D908D909D90AD90BD9037
:10220000CD90DD90ED90FD900D911D91CD91DD91E2
:10221000ED91FD910D90F894FEBF0FBEEDBFED91D5
:08222000FD910994F894FFCF31
:10222800E401E4014C01010251151001111E111BBA
:0E223800500B411B411F1101511F510B28C0BB
:00000001FF
