S01200004C61622D352D746573742E73726563B4
S11300000C9434000C9451000C9451000C94510045
S11300100C9451000C9451000C9451000C94510018
S11300200C9451000C9451000C9451000C94510008
S11300300C9451000C9451000C9451000C945100F8
S11300400C9451000C9451000C9451000C945100E8
S11300500C9451000C9451000C9451006364696E2B
S11300606F70737578585B0011241FBECFEFD4E016
S1130070DEBFCDBF11E0A0E0B1E0E4EAF9E002C0E8
S113008005900D92AA31B107D9F721E0AAE1B1E0B8
S113009001C01D92A032B207E1F70E94EB000C945C
S11300A0D0040C940000CF93DF93CDB7DEB76697EE
S11300B00FB6F894DEBF0FBECDBF66307105E8F50C
S11300C096E1E0E0F1E0DE01119601900D929A953F
S11300D0E1F790ED980F9A3050F4E82FF0E0F097A4
S11300E0EE0FFF1FEC0FFD1F2181328102C028E2B9
S11300F030ECFB01F595E795E451FF4FDB01A1706E
S1130100BB2760FF02C06FE001C060EFAF014C5E2F
S11301105F4F822F8F70329522952F7023273F7067
S11301202327109711F08295807F90819623892B45
S1130130808335964E175F0761F766960FB6F8947D
S1130140DEBF0FBECDBFDF91CF910895E1E6F0E0B1
S113015080E8808310828FE08093E70087EB8093B0
S1130160E50087E08093E60080EC8093E400089546
S11301701092C5008BE08093C40088E98093C1008D
S113018086E08093C2000895EF92FF920F931F932D
S1130190CF93DF93EC017B01CB0164E670E00E9416
S11301A040010AE010E0B8010E944001862FBE0120
S11301B0805D0E9453002196C701B8010E9440014E
S11301C0BE01805D0E945300DF91CF911F910F917A
S11301D0FF90EF900895CF93DF931F92CDB7DEB7D2
S11301E00E94A6000E94B8000F2EF6ECAF2EB12C90
S11301F0F02D0AE111E0CE0101966C010F2EF6E11B
S1130200EF2EF1E0FF2EF02DF5019080692D70E0C6
S113021084E090E00E94C40096949694692D70E066
S113022082E090E00E94C40096949694692D70E058
S113023080E090E00E94C40005C065E070E081E6C3
S11302400E945300F801808191810E946801898392
S1130250813799F3DF92CF92FF92EF920E94A60129
S11302600F900F900F900F908981833769F665E0A6
S113027070E081E60E94530089818337C1F3C4CFC3
S113028097FB072E16F4009407D077FD09D00E943F
S1130290540107FC05D03EF4909581959F4F089535
S11302A0709561957F4F0895AA1BBB1B51E107C050
S11302B0AA1FBB1FA617B70710F0A61BB70B881FF2
S11302C0991F5A95A9F780959095BC01CD01089581
S11302D0CF93DF93EC012B8120FF33C026FF0AC0AC
S11302E02F7B2B838E819F8101969F838E838A81AE
S11302F090E029C022FF0FC0E881F9818081082E97
S1130300000C990B009719F420622B831AC03196C4
S1130310F983E8830EC0EA85FB85099597FF09C038
S11303202B81019611F080E201C080E1822B8B8346
S113033008C02E813F812F5F3F4F3F832E83992733
S113034002C08FEF9FEFDF91CF910895A0E0B0E05E
S1130350ECEAF1E00C94A904AE014B5F5F4FFA01A3
S113036061917191AF0180911A0190911B010E94DA
S11303705803E2E00C94C50420FD09C0FC0123FDF0
S113038005C022FF02C073836283518340830895B2
S113039044FD17C046FD17C0AB01BC01DA01FB01E7
S11303A0AA0FBB1FEE1FFF1F1094D1F74A0F5B1F4C
S11303B06E1F7F1FCB01BA01660F771F881F991F1D
S11303C009C033E001C034E0660F771F881F991F0E
S11303D03150D1F7620F711D811D911D08950F9346
S11303E01F93CF93DF938C01C8010E946801EC0135
S11303F097FD08C00E946904892BB1F7B801CE01AA
S11304000E947D04CE01DF91CF911F910F91089539
S11304108F929F92AF92BF92EF92FF920F931F938E
S1130420CF93DF938C01D62F7A01B22E0E946801FC
S11304309C0133272B32310531F02D32310561F423
S11304408B2D8068B82ED15011F480E068C0C801AB
S11304500E94680197FDF9CFCB2DCD7F2B2D207302
S113046009F58033F9F4AA24AA94AD0E09F443C023
S1130470C8010E94680197FD3EC09C012F7D33276F
S11304802835310549F4C264D250A9F1C8010E944B
S1130490680197FF07C02FC0B6FE02C0C26001C04A
S11304A0C261DA2D812C912C540120ED280F2830C3
S11304B080F0C4FF04C0B8010E947D0419C02A3032
S11304C040F0C6FFF8CF2F7D3FEE320F363098F75D
S11304D027504C2FC501B4010E94C8014B015C0197
S11304E0C260D15059F0C8010E94680197FFDDCF66
S11304F0C1FD04C0AACF812C912C5401C7FF08C0B0
S1130500B094A09490948094811C911CA11CB11C63
S11305102C2FB501A401C7010E94BC0181E0DF9129
S1130520CF911F910F91FF90EF90BF90AF909F904C
S11305308F900895A0E2B0E0E0EAF2E00C949C040D
S11305405C01962E7A01F9018E010F5F1F4F68013D
S113055080E2D8011D928A95E9F7D50113968C9013
S113056080E090E0612C712C30E061E070E083FC6D
S1130570259183FE21918F01522E211103C080E029
S113058090E092C02E3511F4009751F1432F50E0C2
S1130590481759073CF42D3559F12D3219F47720B9
S11305A009F103C0772009F46AC0452D46954695A4
S11305B04695D601A40FB11D452D47708B0102C08D
S11305C0000F111F4A95E2F7A8015C91452B4C934B
S11305D0651459F0561410F45394E7CF5A94E5CFA8
S11305E031E004C07724739401C0712C0196BFCF0D
S11305F0772019F08E8180628E83311103C08824A4
S1130600839417C0F6019E012F5D3F4F8081809532
S113061081932E173F07D1F7F2CFE114F10429F0AB
S1130620D7018C93F70131967F019A94812C9920FC
S1130630F9F0C5010E94680197FD18C0FC01FF276D
S113064023E0F595E7952A95E1F7EC0DFD1D208152
S113065030E0AC014770552702C0359527954A957F
S1130660E2F720FDDACFB5010E947D04811087CF27
S1130670E114F10411F0D7011C92C80115C0422FF6
S1130680469546954695D601A40FB11D422F477055
S11306908B0102C0000F111F4A95E2F7A8015C917B
S11306A0452B4C93622EA2CFA096EFE00C94B80495
S11306B0A0E0B0E0EEE5F3E00C949C046C01EB01E7
S11306C05A01FC0117821682512CF601E380FE01C7
S11306D0E3FC8591E3FE8191182FEF01882309F44F
S11306E0EEC090E00E946904892B21F0C6010E94AB
S11306F0EF01EBCF153241F4FE01E3FC1591E3FE6B
S11307001191EF01153281F4C6010E94680197FD31
S1130710D4C0412F50E09C01332724173507A9F298
S1130720B6010E947D04CBC01A3239F4E3FC159162
S1130730E3FE1191EF0101E001C000E0F12C20ED96
S1130740210F2A3080F402606F2D70E080E090E089
S113075040E20E94C801F62EFE01E3FC1591E3FE7F
S11307601191EF01ECCF01FF03C0F11003C0A7C04A
S1130770FF24FA94183619F01C3651F010C0FE010B
S1130780E3FC1591E3FE1191EF01183641F4086082
S11307900460FE01E3FC1591E3FE1191EF011123C6
S11307A009F48DC0612F70E08CE590E00E94720422
S11307B0892B09F484C000FD07C0F5018080918075
S11307C0C50102965C0102C0812C912C1E3651F4A5
S11307D0F6014681578160E070E0202FC4010E9439
S11307E0BC0173CF1336A9F401FD02C0FF24F394B6
S11307F0C6010E94680197FD60C08114910429F02C
S1130800F4018083C40101964C01FA94F110F0CFF5
S113081050C01B3559F49E01A4016F2DC6010E94DE
S11308209A02EC01892B09F044C03EC0C6010E9423
S1130830EF0197FD42C01F3661F128F4143639F1F7
S1130840193651F128C0133771F0153701F123C05F
S11308508114910429F0F4016082C40101964C01D1
S1130860FA94FF2071F0C6010E9468013C0197FDD3
S113087008C00E946904892B59F3B601C3010E9480
S11308807D0481149104A9F0F401108212C0006265
S113089003C0006101C00064202FA4016F2DC601B4
S11308A00E940802811105C0F6018381807329F436
S11308B006C000FD0ACF539408CF552019F0852DAA
S11308C090E002C08FEF9FEFCDB7DEB7EFE00C945E
S11308D0B80491110C949604803219F08950855013
S11308E0C8F70895FC010590061621F00020D9F7F9
S11308F0C00108953197CF010895FB01238120FFA2
S113090012C026FD10C08F3F3FEF930761F0828332
S11309102F7D206423832681378121503109378339
S11309202683992708958FEF9FEF089599278827A5
S113093008952F923F924F925F926F927F928F927F
S11309409F92AF92BF92CF92DF92EF92FF920F935A
S11309501F93CF93DF93CDB7DEB7CA1BDB0B0FB664
S1130960F894DEBF0FBECDBF09942A883988488821
S11309705F846E847D848C849B84AA84B984C884B7
S1130980DF80EE80FD800C811B81AA81B981CE0FAE
S1130990D11D0FB6F894DEBF0FBECDBFED01089593
S10709A0F894FFCFF5
S11309A451151001111E111B500B411B411F110144
S10D09B4511F510B28C025630000F9
S9030000FC
