:100000000C942E000C944B000C944B000C94A20208
:100010000C944B000C944B000C944B000C94AC02D1
:100020000C944B000C944B000C944B000C944B0024
:100030000C944B000C944B000C944B000C944B0014
:100040000C944B000C944B000C944B000C944B0004
:100050000C944B000C944B000C944B0011241FBECD
:10006000CFEFD4E0DEBFCDBF11E0A0E0B1E0E2E52C
:10007000F7E002C005900D92AA31B107D9F723E04D
:10008000AAE1B1E001C01D92A534B207E1F70E94D8
:1000900095010C94A7030C9400008FE08093E70077
:1000A00087EB8093E50087E08093E60080EC809307
:1000B000E4000895CF93DF93CDB7DEB766970FB610
:1000C000F894DEBF0FBECDBF66307105E8F596E14E
:1000D000E4E0F1E0DE01119601900D929A95E1F7CE
:1000E00090ED980F9A3050F4E82FF0E0F097EE0F73
:1000F000FF1FEC0FFD1F2181328102C028E230EC8E
:10010000FB01F595E795E451FF4FDB01A170BB279B
:1001100060FF02C06FE001C060EFAF014C5E5F4F57
:10012000822F8F70329522952F7023273F702327BF
:10013000109711F08295807F90819623892B808380
:1001400035964E175F0761F766960FB6F894DEBFD7
:100150000FBECDBFDF91CF910895CF92DF92EF9286
:10016000FF92CF93DF936B017C0183E0C816D1042B
:10017000E104F1047CF1D701C60181709927AA2717
:10018000B078BB2354F40197A109B1098E6F9F6F1A
:10019000AF6FBF6F0196A11DB11D892B8A2B8B2BD1
:1001A000E1F0C2E0D0E008C0C701B6010E9425031B
:1001B000672B682B692BA1F021969E010D2E000C58
:1001C000440B550B2C153D054E055F056CF381E086
:1001D00090E008C081E090E005C080E090E002C0BF
:1001E00080E090E0DF91CF91FF90EF90DF90CF9093
:1001F00008958F929F92AF92BF92CF92DF92EF922B
:10020000FF92CF93DF934B015C01EA018AE191E019
:100210000E94D902C501B40124E630E040E050E07C
:100220000E9425030F2EFAE0CF2ED12CE12CF12CC9
:10023000F02DA70196010E942503BE0180E3820FE5
:100240000E945A002196C501B401A70196010E949F
:100250002503862FBE01805D0E945A008AE191E04D
:100260000E940003DF91CF91FF90EF90DF90CF903D
:10027000BF90AF909F908F900895EC01C12CD12C2E
:100280007601C394C701B6010E94AD00892B29F005
:10029000AE01C701B6010E94F9008FEFC81AD80A53
:1002A000E80AF80AEFCF8C012F9AC12CD12C7601E5
:1002B000C0E0D1E08C2F0DC081110BC08FEFC81AA8
:1002C000D80AE80AF80AA801C701B6010E94F90095
:1002D0008D2F1F9BF1CFEECFEC010EEF10E0FF242E
:1002E000F3946091220170912301072E000C880B7A
:1002F000990B49E050E00E94F90080912201909111
:1003000023018C179D076CF3F80180818F25808372
:1003100040E050E06CE070E080E090E00E94F90086
:100320001092230110922201DCCFE1E6F0E080E898
:10033000808310820E944D0060E070E08DE391E0C8
:100340000E94E30163E070E083E591E00E94E30135
:1003500084E190E00E946C01DC0115961C921E92D3
:100360001497DB01ED91FC911197309721F48D9357
:100370009C930895F9012481358121153105D1F728
:10038000958384830895CF93DF9300D0CDB7DEB7F4
:100390009A838983809100019091010106960E94C1
:1003A0006603892B59F489819A8190930101809386
:1003B000000161E070E006960E9486030F900F90A6
:1003C000DF91CF910895CF93DF9300D0CDB7DEB703
:1003D000F89420911E0130911F01232BE1F52EEF9F
:1003E00031E030939601209395012BE632E0309373
:1003F00003022093020228ED32E030937002209332
:100400006F021092DD021092DC0221E030E03093A6
:100410001F0120931E01EF9AECE6F0E02081206896
:1004200020832F9AEFE6F0E0208122602083E0E82D
:10043000F0E02081206C2083E1E8F0E020812D6055
:10044000208327E831E030938900209388001092C0
:1004500085001092840020910201309103013A83BB
:100460002983232BA9F0E981FA8144815581509396
:100470000301409302019183808373836283158219
:100480001482CF0106960E946603019749F501C0C8
:10049000FFCF7894A0910001B0910101ED91FC9102
:1004A000119712968D919C9113970995F89462E09B
:1004B00071E080910001909101010E94AC01809156
:1004C000200190912101009751F0FC012481358198
:1004D00030932101209320010E94C30101C0FFCF6E
:1004E000E981FA81369689819A8187599F4F918B4C
:1004F000808B938B828B60E271E089819A810E946C
:10050000AC0178940F900F90DF91CF910895F894FB
:1005100060E271E080910001909101010E94AC01C4
:100520008091200190912101009759F0FC012481D4
:10053000358130932101209320010E94C3017894DA
:100540000895FFCF1F920F920FB60F9211240F90B4
:100550000FBE0F901F9018951F920F920FB60F921B
:1005600011242F933F934F935F936F937F938F93B8
:100570009F93AF93BF93EF93FF938091220190914C
:100580002301019690932301809322010E94870208
:10059000FF91EF91BF91AF919F918F917F916F915B
:1005A0005F914F913F912F910F900FBE0F901F9031
:1005B0001895F894FC0120813181232B29F421E046
:1005C00030E0318320831AC0BC016E5F7F4F809181
:1005D0000001909101010E94AC0180912001909155
:1005E0002101009751F0FC012481358130932101D4
:1005F000209320010E94C30101C0FFCF7894089589
:10060000CF93DF93F894FC0122813381232BB1F047
:10061000EC0160E271E080910001909101010E9483
:10062000AC018A819B81009741F0FC0124813581D6
:100630003B832A830E94C30104C0FFCFFC011182C7
:1006400010827894DF91CF910895052E97FB1EF4C8
:1006500000940E943C0357FD07D00E94440307FC0E
:1006600003D04EF40C943C03509540953095219561
:100670003F4F4F4F5F4F08959095809570956195CE
:100680007F4F8F4F9F4F0895A1E21A2EAA1BBB1BCD
:10069000FD010DC0AA1FBB1FEE1FFF1FA217B3074E
:1006A000E407F50720F0A21BB30BE40BF50B661F64
:1006B000771F881F991F1A9469F760957095809528
:1006C00090959B01AC01BD01CF010895DC012D92F5
:1006D0003D924D925D926D927D928D929D92AD92E2
:1006E000BD92CD92DD92ED92FD920D931D93CD932F
:1006F000DD93FF91EF918DB78D938EB78D938FB76B
:100700008D93ED93FD93882799270994DC01CB0104
:1007100081309105811D2D903D904D905D906D90A3
:100720007D908D909D90AD90BD90CD90DD90ED90A1
:10073000FD900D911D91CD91DD91ED91FD910D906B
:10074000F894FEBF0FBEEDBFED91FD910994F894B2
:02075000FFCFD9
:100752002401910151151001111E111B500B411B57
:0A076200411F1101511F510B28C067
:00000001FF
