:100000000C942E000C944B000C944B000C944C025E
:100010000C944B000C944B000C944B000C9471020C
:100020000C944B000C944B000C944B000C944B0024
:100030000C944B000C944B000C944B000C944B0014
:100040000C944B000C944B000C944B000C944B0004
:100050000C944B000C944B000C944B0011241FBECD
:10006000CFEFD4E0DEBFCDBF11E0A0E0B1E0E2E32E
:10007000F6E002C005900D92AA31B107D9F723E04E
:10008000AAE1B1E001C01D92AF33B207E1F70E94CF
:1000900045010C9417030C9400008FE08093E70057
:1000A00087EB8093E50087E08093E60080EC809307
:1000B000E4000895CF93DF93CDB7DEB766970FB610
:1000C000F894DEBF0FBECDBF66307105E8F596E14E
:1000D000E4E0F1E0DE01119601900D929A95E1F7CE
:1000E00090ED980F9A3050F4E82FF0E0F097EE0F73
:1000F000FF1FEC0FFD1F2181328102C028E230EC8E
:10010000FB01F595E795E451FF4FDB01A170BB279B
:1001100060FF02C06FE001C060EFAF014C5E5F4F57
:10012000822F8F70329522952F7023273F702327BF
:10013000109711F08295807F90819623892B808380
:1001400035964E175F0761F766960FB6F894DEBFD7
:100150000FBECDBFDF91CF910895CF92DF92EF9286
:10016000FF92CF93DF936B017C0183E0C816D1042B
:10017000E104F10474F1D701C60181709927AA271F
:10018000B078BB2354F40197A109B1098E6F9F6F1A
:10019000AF6FBF6F0196A11DB11D892B8A2B8B2BD1
:1001A000D1F0C2E0D0E008C0C701B6010E949502BC
:1001B000672B682B692B89F021969E010D2E000C70
:1001C000440B550B2C153D054E055F056CF381E086
:1001D00005C081E003C080E001C080E0DF91CF91E5
:1001E000FF90EF90DF90CF9008958F929F92AF9203
:1001F000BF92CF92DF92EF92FF92CF93DF934B01AA
:100200005C01EA0124E630E040E050E00E94950203
:100210000F2EFAE0CF2ED12CE12CF12CF02DA701DE
:1002200096010E949502BE0180E3820F0E945A004F
:100230002196C501B401A70196010E949502862F5F
:10024000BE01805D0E945A00DF91CF91FF90EF9038
:10025000DF90CF90BF90AF909F908F900895EC016A
:10026000C12CD12C7601C394C701B6010E94AD0008
:10027000882329F0AE01C701B6010E94F5008FEF77
:10028000C81AD80AE80AF80AEFCFE1E6F0E080E8F9
:10029000808310820E944D0060E070E08FE291E068
:1002A0000E948D0183E090E00E942F01DC011596F1
:1002B0001C921E921497DB01ED91FC9111973097DF
:1002C00021F48D939C930895F901248135812115A2
:1002D0003105D1F7958384830895CF93DF9300D0C0
:1002E000CDB7DEB79A838983809100019091010197
:1002F00006960E94D602892B59F489819A8190939F
:1003000001018093000161E070E006960E94F60210
:100310000F900F90DF91CF910895CF93DF9300D08E
:10032000CDB7DEB7F89420911A0130911B01232B31
:10033000E1F528EF31E03093900120938F0125E61D
:1003400032E03093FD012093FC0122ED32E0309346
:100350006A02209369021092D7021092D60221E01D
:1003600030E030931B0120931A01EF9AECE6F0E0A5
:100370002081206820832F9AEFE6F0E02081226020
:100380002083E0E8F0E02081206C2083E1E8F0E0C9
:1003900020812D60208327E831E03093890020936D
:1003A0008800109285001092840020910201309103
:1003B00003013A832983232BA9F0E981FA8144813F
:1003C000558150930301409302019183808373838D
:1003D000628315821482CF0106960E94D60201978D
:1003E00049F501C0FFCF7894A0910001B0910101BF
:1003F000ED91FC91119712968D919C91139709950F
:10040000F89462E071E080910001909101010E94F6
:10041000560180911C0190911D01009751F0FC0143
:100420002481358130931D0120931C010E946D01B0
:1004300001C0FFCFE981FA81369689819A81875977
:100440009F4F918B808B938B828B6CE171E08981C4
:100450009A810E94560178940F900F90DF91CF916E
:10046000089578946CE171E0809100019091010110
:100470000E94560180911C0190911D01009759F036
:10048000FC012481358130931D0120931C010E94C1
:100490006D01F8940895FFCF1F920F920FB60F923F
:1004A00011242F933F934F935F936F937F938F9379
:1004B0009F93AF93BF93EF93FF931F9B0E943102D3
:1004C000FF91EF91BF91AF919F918F917F916F912C
:1004D0005F914F913F912F910F900FBE0F901F9002
:1004E00018951F920F920FB60F9211242F933F93DE
:1004F0004F935F936F937F938F939F93AF93BF932C
:10050000EF93FF930E943102FF91EF91BF91AF9162
:100510009F918F917F916F915F914F913F912F911B
:100520000F900FBE0F901F901895052E97FB1EF48D
:1005300000940E94AC0257FD07D00E94B40207FC51
:1005400003D04EF40C94AC02509540953095219513
:100550003F4F4F4F5F4F08959095809570956195EF
:100560007F4F8F4F9F4F0895A1E21A2EAA1BBB1BEE
:10057000FD010DC0AA1FBB1FEE1FFF1FA217B3076F
:10058000E407F50720F0A21BB30BE40BF50B661F85
:10059000771F881F991F1A9469F760957095809549
:1005A00090959B01AC01BD01CF010895DC012D9216
:1005B0003D924D925D926D927D928D929D92AD9203
:1005C000BD92CD92DD92ED92FD920D931D93CD9350
:1005D000DD93FF91EF918DB78D938EB78D938FB78C
:1005E0008D93ED93FD93882799270994DC01CB0126
:1005F00081309105811D2D903D904D905D906D90C5
:100600007D908D909D90AD90BD90CD90DD90ED90C2
:10061000FD900D911D91CD91DD91ED91FD910D908C
:10062000F894FEBF0FBEEDBFED91FD910994F894D3
:02063000FFCFFA
:100632001E018B0151151001111E111B500B411B84
:0A064200411F1101511F510B28C088
:00000001FF
