S00D00004C61622D342E73726563A7
S11300000C942E000C94D9010C9448020C94B70261
S11300100C9426030C9495030C944B000C94F9094E
S11300200C944B000C94A7090C9404040C947304D2
S11300300C94E2040C9451050C94C0050C942F0606
S11300400C949E060C940D070C947C070C94EB07FF
S11300500C945A080C94C9080C94380911241FBE36
S1130060CFEFD4E0DEBFCDBF11E0A0E0B1E0EAE322
S1130070F6E102C005900D92AC31B107D9F724E046
S1130080ACE1B1E001C01D92AF36B207E1F70E94C6
S113009019010C941B0B0C9400008DB3806C8DBB68
S11300A085B1806885B9ECE6F0E080818068808362
S11300B085B1806485B98081806480838EB18860D5
S11300C08EB9ABE6B0E08C9188608C938EB184607D
S11300D08EB98C9184608C9385B1806185B980815F
S11300E0806180830895E1E6F0E080E880831082F7
S11300F08FE08093E70087EB8093E50087E08093AF
S1130100E60080EC8093E4000895CF93DF93CDB7AD
S1130110DEB766970FB6F894DEBF0FBECDBF66306C
S1130120710508F043C096E1E6E0F1E0DE011196C6
S113013001900D929A95E1F790ED980F9A3070F432
S1130140E82FF0E0F097EE0FFF1F81E090E08C0FB6
S11301509D1FE80FF91F4081518102C048E250EC15
S1130160FB01F595E795E451FF4FDB01A170BB2737
S113017060FD02C060EF01C06FE020E030E013C01A
S1130180842F8F70529542954F7045275F70452795
S1130190109711F08295807F90819623892B80831C
S11301A035962F5F3F4F2430310554F366960FB6D2
S11301B0F894DEBF0FBECDBFDF91CF9108958F922B
S11301C09F92AF92BF92CF92DF92EF92FF92CF9322
S11301D0DF934B015C01EA0124E630E040E050E0AB
S11301E00E94990A0F2EFAE0CF2ED12CE12CF12C8B
S11301F0F02DA70196010E94990ABE0180E3820FA7
S11302000E9485002196C501B401A70196010E94B0
S1130210990A862FBE01805D0E948500DF91CF91EF
S1130220FF90EF90DF90CF90BF90AF909F908F9012
S113023008950E9473000E944D0082E08093ED00B7
S113024040E050E062ED74E080E090E00E94DF0066
S1130250F4CFCF93DF9300D0CDB7DEB79A838983F1
S1130260809100019091010106960E94DA0A892B7F
S113027059F489819A81909301018093000161E08E
S113028070E006960E94FA0A0F900F90DF91CF91CA
S113029008950F931F93CF93DF93DC01CB01EB0100
S11302A0E881F981C0E0D0E004C0EF010190F08161
S11302B0E02D309779F006811781208531851696D7
S11302C04D915D916D917C9119974017510762078B
S11302D073075CF71196FC93EE93209721F4FC01CD
S11302E0B183A08302C0B983A883DF91CF911F910A
S11302F00F910895DC01ED91FC911197309759F419
S11303008FEF8093EC008093ED008093EE0081E00A
S113031083BF8895FCCF208131812D933C93CF01FD
S11303200895FB0120813181FC0131832083FB018D
S1130330918380830895DC01ED91FC9111972081D4
S113034031812D933C93CF010895CF93DF93E091B6
S11303500201F0910301C281D381E0912401F09163
S11303602501309719F18091040190910501892BA1
S1130370E9F0209769F086819781A085B1854E8147
S11303805F8168857985841B950BA60BB70B72F486
S113039084E091E00E949B0162E071E00E9491017F
S11303A080910201909103010E942901DF91CF9174
S11303B008951F920F920FB60F9211240F931F935B
S11303C02F933F934F935F936F937F938F939F9359
S11303D0AF93BF93EF93FF9380911C0190911D0104
S11303E0AC01092E000C660B770B9A01112700272C
S11303F0409184005091850060E070E0402B512BC7
S1130400622B732B40931E0150931F0160932001B4
S113041070932101B09B1AC00196092E000CAA0BFF
S1130420BB0BBC0155274427809184009091850023
S1130430A0E0B0E0842B952BA62BB72B80931E0154
S113044090931F01A0932001B0932101E091BE017C
S1130450F091BF01309739F060E070E0809126019F
S11304609091270109950E94A501FF91EF91BF91F9
S1130470AF919F918F917F916F915F914F913F9138
S11304802F911F910F910F900FBE0F901F901895F1
S11304901F920F920FB60F9211240F931F932F9355
S11304A03F934F935F936F937F938F939F93AF93F8
S11304B0BF93EF93FF9380911C0190911D01AC01B8
S11304C0092E000C660B770B9A0111270027409127
S11304D084005091850060E070E0402B512B622B2A
S11304E0732B40931E0150931F016093200170935E
S11304F02101B09B1AC00196092E000CAA0BBB0B5C
S1130500BC01552744278091840090918500A0E088
S1130510B0E0842B952BA62BB72B80931E019093D0
S11305201F01A0932001B0932101E091C001F0913B
S1130530C101309739F061E070E080912801909119
S1130540290109950E94A501FF91EF91BF91AF91F7
S11305509F918F917F916F915F914F913F912F91D7
S11305601F910F910F900FBE0F901F9018951F921F
S11305700F920FB60F9211240F931F932F933F9353
S11305804F935F936F937F938F939F93AF93BF9397
S1130590EF93FF9380911C0190911D01AC01092EF2
S11305A0000C660B770B9A011127002740918400F9
S11305B05091850060E070E0402B512B622B732B2F
S11305C040931E0150931F016093200170932101F9
S11305D0B09B1AC00196092E000CAA0BBB0BBC01E0
S11305E0552744278091840090918500A0E0B0E0D5
S11305F0842B952BA62BB72B80931E0190931F0160
S1130600A0932001B0932101E091C201F091C301B4
S1130610309739F062E070E080912A0190912B01CB
S113062009950E94A501FF91EF91BF91AF919F9110
S11306308F917F916F915F914F913F912F911F9176
S11306400F910F900FBE0F901F9018951F920F924D
S11306500FB60F9211240F931F932F933F934F9331
S11306605F936F937F938F939F93AF93BF93EF9316
S1130670FF9380911C0190911D01AC01092E000C87
S1130680660B770B9A011127002740918400509143
S1130690850060E070E0402B512B622B732B40935C
S11306A01E0150931F016093200170932101B09BA0
S11306B01AC00196092E000CAA0BBB0BBC015527CE
S11306C044278091840090918500A0E0B0E0842BC1
S11306D0952BA62BB72B80931E0190931F01A093FB
S11306E02001B0932101E091C401F091C50130973C
S11306F039F063E070E080912C0190912D0109950F
S11307000E94A501FF91EF91BF91AF919F918F91AD
S11307107F916F915F914F913F912F911F910F9115
S11307200F900FBE0F901F9018951F920F920FB647
S11307300F9211240F931F932F933F934F935F9323
S11307406F937F938F939F93AF93BF93EF93FF9395
S113075080911C0190911D01AC01092E000C660BC7
S1130760770B9A011127002740918400509185004E
S113077060E070E0402B512B622B732B40931E01E1
S113078050931F016093200170932101B09B1AC004
S11307900196092E000CAA0BBB0BBC01552744275C
S11307A08091840090918500A0E0B0E0842B952B8B
S11307B0A62BB72B80931E0190931F01A0932001B9
S11307C0B0932101E091C601F091C701309739F04F
S11307D064E070E080912E0190912F0109950E94B0
S11307E0A501FF91EF91BF91AF919F918F917F915F
S11307F06F915F914F913F912F911F910F910F90A6
S11308000FBE0F901F9018951F920F920FB60F9264
S113081011240F931F932F933F934F935F936F93E1
S11308207F938F939F93AF93BF93EF93FF938091A5
S11308301C0190911D01AC01092E000C660B770B75
S11308409A0111270027409184005091850060E0AF
S113085070E0402B512B622B732B40931E0150935D
S11308601F016093200170932101B09B1AC001966F
S1130870092E000CAA0BBB0BBC0155274427809101
S1130880840090918500A0E0B0E0842B952BA62BEA
S1130890B72B80931E0190931F01A0932001B09366
S11308A02101E091C801F091C901309739F065E068
S11308B070E0809130019091310109950E94A50169
S11308C0FF91EF91BF91AF919F918F917F916F9124
S11308D05F914F913F912F911F910F910F900FBEF8
S11308E00F901F9018951F920F920FB60F9211241C
S11308F00F931F932F933F934F935F936F937F9324
S11309008F939F93AF93BF93EF93FF9380911C01B9
S113091090911D01AC01092E000C660B770B9A0116
S113092011270027409184005091850060E070E019
S1130930402B512B622B732B40931E0150931F01AC
S11309406093200170932101B09B1AC00196092E77
S1130950000CAA0BBB0BBC015527442780918400D3
S113096090918500A0E0B0E0842B952BA62BB72BAB
S113097080931E0190931F01A0932001B093210145
S1130980E091CA01F091CB01309739F066E070E054
S1130990809132019091330109950E94A501FF9144
S11309A0EF91BF91AF919F918F917F916F915F91E3
S11309B04F913F912F911F910F910F900FBE0F9068
S11309C01F9018951F920F920FB60F9211240F9338
S11309D01F932F933F934F935F936F937F938F93C3
S11309E09F93AF93BF93EF93FF9380911C019091DA
S11309F01D01AC01092E000C660B770B9A0111271F
S1130A000027409184005091850060E070E0402B05
S1130A10512B622B732B40931E0150931F01609343
S1130A20200170932101B09B1AC00196092E000C7D
S1130A30AA0BBB0BBC0155274427809184009091DD
S1130A408500A0E0B0E0842B952BA62BB72B8093D8
S1130A501E0190931F01A0932001B0932101E09106
S1130A60CC01F091CD01309739F067E070E08091CE
S1130A7034019091350109950E94A501FF91EF91F0
S1130A80BF91AF919F918F917F916F915F914F91A2
S1130A903F912F911F910F910F900FBE0F901F90B8
S1130AA018951F920F920FB60F9211240F931F9354
S1130AB02F933F934F935F936F937F938F939F9362
S1130AC0AF93BF93EF93FF9380911C0190911D010D
S1130AD0AC01092E000C660B770B9A011127002735
S1130AE0409184005091850060E070E0402B512BD0
S1130AF0622B732B40931E0150931F0160932001BE
S1130B0070932101B09B1AC00196092E000CAA0B08
S1130B10BB0BBC015527442780918400909185002C
S1130B20A0E0B0E0842B952BA62BB72B80931E015D
S1130B3090931F01A0932001B0932101E091CE0175
S1130B40F091CF01309739F068E070E08091360180
S1130B509091370109950E94A501FF91EF91BF91F2
S1130B60AF919F918F917F916F915F914F913F9141
S1130B702F911F910F910F900FBE0F901F901895FA
S1130B801F920F920FB60F9211240F931F932F935E
S1130B903F934F935F936F937F938F939F93AF9301
S1130BA0BF93EF93FF9380911C0190911D01AC01C1
S1130BB0092E000C660B770B9A0111270027409130
S1130BC084005091850060E070E0402B512B622B33
S1130BD0732B40931E0150931F0160932001709367
S1130BE02101B09B1AC00196092E000CAA0BBB0B65
S1130BF0BC01552744278091840090918500A0E092
S1130C00B0E0842B952BA62BB72B80931E019093D9
S1130C101F01A0932001B0932101E091D001F09134
S1130C20D101309739F069E070E0809138019091FA
S1130C30390109950E94A501FF91EF91BF91AF91F0
S1130C409F918F917F916F915F914F913F912F91E0
S1130C501F910F910F900FBE0F901F9018951F9228
S1130C600F920FB60F9211240F931F932F933F935C
S1130C704F935F936F937F938F939F93AF93BF93A0
S1130C80EF93FF9380911C0190911D01AC01092EFB
S1130C90000C660B770B9A01112700274091840002
S1130CA05091850060E070E0402B512B622B732B38
S1130CB040931E0150931F01609320017093210102
S1130CC0B09B1AC00196092E000CAA0BBB0BBC01E9
S1130CD0552744278091840090918500A0E0B0E0DE
S1130CE0842B952BA62BB72B80931E0190931F0169
S1130CF0A0932001B0932101E091D201F091D3019E
S1130D00309739F06AE070E080913A0190913B01AC
S1130D1009950E94A501FF91EF91BF91AF919F9119
S1130D208F917F916F915F914F913F912F911F917F
S1130D300F910F900FBE0F901F9018951F920F9256
S1130D400FB60F9211240F931F932F933F934F933A
S1130D505F936F937F938F939F93AF93BF93EF931F
S1130D60FF9380911C0190911D01AC01092E000C90
S1130D70660B770B9A01112700274091840050914C
S1130D80850060E070E0402B512B622B732B409365
S1130D901E0150931F016093200170932101B09BA9
S1130DA01AC00196092E000CAA0BBB0BBC015527D7
S1130DB044278091840090918500A0E0B0E0842BCA
S1130DC0952BA62BB72B80931E0190931F01A09304
S1130DD02001B0932101E091D401F091D501309725
S1130DE039F06BE070E080913C0190913D010995F0
S1130DF00E94A501FF91EF91BF91AF919F918F91B7
S1130E007F916F915F914F913F912F911F910F911E
S1130E100F900FBE0F901F9018951F920F920FB650
S1130E200F9211240F931F932F933F934F935F932C
S1130E306F937F938F939F93AF93BF93EF93FF939E
S1130E4080911C0190911D01AC01092E000C660BD0
S1130E50770B9A0111270027409184005091850057
S1130E6060E070E0402B512B622B732B40931E01EA
S1130E7050931F016093200170932101B09B1AC00D
S1130E800196092E000CAA0BBB0BBC015527442765
S1130E908091840090918500A0E0B0E0842B952B94
S1130EA0A62BB72B80931E0190931F01A0932001C2
S1130EB0B0932101E091D601F091D701309739F038
S1130EC06CE070E080913E0190913F0109950E9491
S1130ED0A501FF91EF91BF91AF919F918F917F9168
S1130EE06F915F914F913F912F911F910F910F90AF
S1130EF00FBE0F901F9018951F920F920FB60F926E
S1130F0011240F931F932F933F934F935F936F93EA
S1130F107F938F939F93AF93BF93EF93FF938091AE
S1130F201C0190911D01AC01092E000C660B770B7E
S1130F309A0111270027409184005091850060E0B8
S1130F4070E0402B512B622B732B40931E01509366
S1130F501F016093200170932101B09B1AC0019678
S1130F60092E000CAA0BBB0BBC015527442780910A
S1130F70840090918500A0E0B0E0842B952BA62BF3
S1130F80B72B80931E0190931F01A0932001B0936F
S1130F902101E091D801F091D901309739F06DE049
S1130FA070E0809140019091410109950E94A50152
S1130FB0FF91EF91BF91AF919F918F917F916F912D
S1130FC05F914F913F912F911F910F910F900FBE01
S1130FD00F901F9018951F920F920FB60F92112425
S1130FE00F931F932F933F934F935F936F937F932D
S1130FF08F939F93AF93BF93EF93FF9380911C01C3
S113100090911D01AC01092E000C660B770B9A011F
S113101011270027409184005091850060E070E022
S1131020402B512B622B732B40931E0150931F01B5
S11310306093200170932101B09B1AC00196092E80
S1131040000CAA0BBB0BBC015527442780918400DC
S113105090918500A0E0B0E0842B952BA62BB72BB4
S113106080931E0190931F01A0932001B09321014E
S1131070E091DA01F091DB01309739F06EE070E035
S1131080809142019091430109950E94A501FF912D
S1131090EF91BF91AF919F918F917F916F915F91EC
S11310A04F913F912F911F910F910F900FBE0F9071
S11310B01F9018951F920F920FB60F9211240F9341
S11310C01F932F933F934F935F936F937F938F93CC
S11310D09F93AF93BF93EF93FF9380911C019091E3
S11310E01D01AC01092E000C660B770B9A01112728
S11310F00027409184005091850060E070E0402B0F
S1131100512B622B732B40931E0150931F0160934C
S1131110200170932101B09B1AC00196092E000C86
S1131120AA0BBB0BBC0155274427809184009091E6
S11311308500A0E0B0E0842B952BA62BB72B8093E1
S11311401E0190931F01A0932001B0932101E0910F
S1131150DC01F091DD01309739F06FE070E08091AF
S113116044019091450109950E94A501FF91EF91D9
S1131170BF91AF919F918F917F916F915F914F91AB
S11311803F912F911F910F910F900FBE0F901F90C1
S113119018951F920F920FB60F9211240F931F935D
S11311A02F933F934F935F936F937F938F939F936B
S11311B0AF93BF93EF93FF9380911C0190911D0116
S11311C0AC01092E000C660B770B9A01112700273E
S11311D0409184005091850060E070E0402B512BD9
S11311E0622B732B40931E0150931F0160932001C7
S11311F070932101B09B1AC00196092E000CAA0B12
S1131200BB0BBC0155274427809184009091850035
S1131210A0E0B0E0842B952BA62BB72B80931E0166
S113122090931F01A0932001B0932101E091DE016E
S1131230F091DF01309739F060E170E08091460170
S11312409091470109950E94A501FF91EF91BF91EB
S1131250AF919F918F917F916F915F914F913F914A
S11312602F911F910F910F900FBE0F901F90189503
S11312701F920F920FB60F9211240F931F932F9367
S11312803F934F935F936F937F938F939F93AF930A
S1131290BF93EF93FF9380911C0190911D01AC01CA
S11312A0092E000C660B770B9A0111270027409139
S11312B084005091850060E070E0402B512B622B3C
S11312C0732B40931E0150931F0160932001709370
S11312D02101B09B1AC00196092E000CAA0BBB0B6E
S11312E0BC01552744278091840090918500A0E09B
S11312F0B0E0842B952BA62BB72B80931E019093E3
S11313001F01A0932001B0932101E091E001F0912D
S1131310E101309739F061E170E0809148019091EA
S1131320490109950E94A501FF91EF91BF91AF91E9
S11313309F918F917F916F915F914F913F912F91E9
S11313401F910F910F900FBE0F901F9018951F9231
S11313500F920FB60F9211242F933F934F935F93E5
S11313606F937F938F939F93EF93FF9380911C01CF
S113137090911D01019690931D0180931C01E091B1
S11313802201F0912301309701F14281538164815C
S1131390758186179707C9F4CA012091840030919A
S11313A08500421B530B4130510529F48091840080
S11313B09091850001969093890080938800EFE6D0
S11313C0F0E080818260808305C0EFE6F0E08081F8
S11313D08D7F8083FF91EF919F918F917F916F918A
S11313E05F914F913F912F910F900FBE0F901F90DF
S11313F018951F920F920FB60F921124CF92DF927D
S1131400EF92FF922F933F934F935F936F937F934A
S11314108F939F93AF93BF93EF93FF9380911C019E
S113142090911D016C01092E000CEE08FF08760155
S1131430DD24CC24409184005091850060E070E06C
S1131440C42AD52AE62AF72AB09B1EC06C012FEFC6
S1131450C21AD20A0D2C000CEE08FF08D6019927F7
S11314608827C0908400D0908500E12CF12CC82AF4
S1131470D92AEA2AFB2A08C082E291E00E947A0172
S113148064E271E00E944901E0912201F09123019C
S1131490309769F082819381A481B5818C199D096B
S11314A0AE09BF09181619061A061B062CF7309741
S11314B021F182819381A481B58120911C01309115
S11314C01D012A173B07C9F49C01409184005091E7
S11314D08500841B950B019731F420918400309191
S11314E085002F5F3F4F3093890020938800EFE6FB
S11314F0F0E080818260808305C0EFE6F0E08081C7
S11315008D7F80830E94A501FF91EF91BF91AF91E0
S11315109F918F917F916F915F914F913F912F9107
S1131520FF90EF90DF90CF900F900FBE0F901F9021
S11315301895052E97FB1EF400940E94B00A57FDDF
S113154007D00E94B80A07FC03D04EF40C94B00AEA
S113155050954095309521953F4F4F4F5F4F0895DB
S113156090958095709561957F4F8F4F9F4F08950B
S1131570A1E21A2EAA1BBB1BFD010DC0AA1FBB1F93
S1131580EE1FFF1FA217B307E407F50720F0A21B05
S1131590B30BE40BF50B661F771F881F991F1A9472
S11315A069F760957095809590959B01AC01BD019C
S11315B0CF010895DC012D923D924D925D926D9282
S11315C07D928D929D92AD92BD92CD92DD92ED92DF
S11315D0FD920D931D93CD93DD93FF91EF918DB704
S11315E08D938EB78D938FB78D93ED93FD9388274D
S11315F099270994DC01CB0181309105811D2D903F
S11316003D904D905D906D907D908D909D90AD90AE
S1131610BD90CD90DD90ED90FD900D911D91CD91FB
S1131620DD91ED91FD910D90F894FEBF0FBEEDBFDD
S10D1630ED91FD910994F894FFCFA9
S113163AE201E2014A0151151001111E111B500B5E
S10F164A411B411F1101511F510B28C00E
S9030000FC
