S00D00004C61622D342E73726563A7
S11300000C942E000C946E030C94DD030C944C049D
S11300100C94BB040C942A050C944B000C94950B83
S11300200C944B000C94430B0C9499050C94080607
S11300300C9477060C94E6060C9455070C94C407AC
S11300400C9433080C94A2080C9411090C948009A4
S11300500C94EF090C945E0A0C94CD0A11241FBE73
S1130060CFEFD4E0DEBFCDBF11E0A0E0B1E0EAEF16
S1130070FCE102C005900D92AE31B107D9F724E03E
S1130080AEE1B1E001C01D92A137B207E1F70E94D1
S113009007010C947B0E0C940000CF92DF92EF9238
S11300A0FF920F931F93CF93DF93EC0140E050E056
S11300B06DED70E0888599850E943E0D0C811D814F
S11300C0C12CD12C0F2EF4E6EF2EF1E0FF2EF02DF3
S11300D020E030E0A90160E070E0CB010E94350C23
S11300E00E811F8120E030E0A90160E070E0CB01C7
S11300F00E94350CDF91CF911F910F91FF90EF90EB
S1130100DF90CF900895CF93DF93CDB7DEB7669796
S11301100FB6F894DEBF0FBECDBF6630710508F090
S113012043C096E1E8E0F1E0DE01119601900D9202
S11301309A95E1F790ED980F9A3070F4E82FF0E07B
S1130140F097EE0FFF1F81E090E08C0F9D1FE80FEA
S1130150F91F4081518102C048E250ECFB01F59542
S1130160E795E451FF4FDB01A170BB2760FD02C09E
S113017060EF01C06FE020E030E013C0842F8F7087
S1130180529542954F7045275F704527109711F09F
S11301908295807F90819623892B808335962F5F6B
S11301A03F4F2430310554F366960FB6F894DEBF02
S11301B00FBECDBFDF91CF910895E1E6F0E080E876
S11301C0808310828FE08093E70087EB8093E500C3
S11301D087E08093E60080EC8093E400000084E0F4
S11301E08093ED0060E070E080E30E94830061E0B2
S11301F070E080E30E94830064E070E080E30E948A
S1130200830065E070E080E30E9483000895CF934B
S1130210DF93CDB7DEB7E6970FB6F894DEBF0FBE17
S1130220CDBF1A8219821C821B821E821D821886EF
S11302301F8221E030E03A8729871C861B861E86B0
S11302401D86AE014F5F5F4F588B4F87CE010596D9
S11302509A8B898B66E070E07C8B6B8B1E8A1D8A7F
S1130260188E1F8A1A8E198E1C8E1B8E1E8E1D8E42
S113027058A34F8F9AA389A344E050E05CA34BA3F7
S11302801EA21DA218A61FA21AA619A61CA61BA66A
S11302901EA61DA698AB8FA706969AAB89AB40966F
S11302A09CAB8BAB3EAB2DAB40E050E06DE470E01B
S11302B040960E94180EE6960FB6F894DEBF0FBE65
S11302C0CDBFDF91CF910895AF92BF92CF92DF92CD
S11302D0EF92FF920F931F93CF93DF93CDB7DEB7C7
S11302E028970FB6F894DEBF0FBECDBF5C01FC01AA
S11302F0808591859A838983868597859C838B8362
S11303002685378581E090E0232B11F080E090E092
S1130310F50197878687868597859C838B83C12C77
S1130320D12C0F2EF4E6EF2EF1E0FF2EF02D8501F7
S113033020E030E0A90169E07DE380E090E00E94E4
S1130340350CF501868597859E838D8380859185FF
S113035098878F8304811581CE0105966C010F2E39
S1130360FFE2EF2EFEE0FF2EF02D20E030E0A901A9
S113037060E070E0CB010E94350CF5018085918529
S1130380892B31F4E9EFF0E0908181E089278083C3
S1130390F50180859185069731F4EEEFF0E09081C8
S11303A081E08927808328960FB6F894DEBF0FBEBC
S11303B0CDBFDF91CF911F910F91FF90EF90DF9010
S11303C0CF90BF90AF900895CF93DF9300D000D02B
S11303D0CDB7DEB780E090E018C0AC014F5F5F4F4F
S11303E09A0122953295307F3227207F32272F5F62
S11303F03D4F82959295907F9827807F9827FC01A6
S1130400EF5FFD4F31832083CA018E3091052CF3B9
S11304101092E2021092E10280E090E015C0AC017B
S11304204F5F5F4F6DE1649F9001659F300D112414
S1130430245B3E4F689FF001699FF00D1124E45B3B
S1130440FE4F31832083CA018330910544F3109217
S1130450A4011092A3011A82198232C02DE14981AC
S11304605A81249FC001259F900D1124FC01EE5A4E
S1130470FE4FFC83EB83CF010E943A0E20E64981B4
S11304805A81249FC001259F900D1124835B9C4FAA
S1130490EB81FC81918B808B938B828B80EC9DE034
S11304A0968B858B8DE1849FF001859FF00D11243F
S11304B0E45BFE4F158214824F5F5F4F5A8349837A
S11304C029813A81243031054CF2E4EEF1E01182C5
S11304D010821582148213821282E1E6F0E080E831
S11304E080831082109285001092840084E08093AF
S11304F0810081E080936F000F900F900F900F9018
S1130500DF91CF910895CF93DF9300D0CDB7DEB7BD
S11305109A838983809100019091010106960E943B
S11305203A0E892B59F489819A8190930101809321
S1130530000161E070E006960E945A0E0F900F9041
S1130540DF91CF9108950F931F93CF93DF93DC0135
S1130550CB01EB01E881F981C0E0D0E004C0EF01F8
S11305600190F081E02D309779F006811781208584
S1130570318516964D915D916D917C911997401737
S11305805107620773075CF71196FC93EE9320976B
S113059021F4FC01B183A08302C0B983A883DF9155
S11305A0CF911F910F9108950F931F93CF93DF93D2
S11305B0DC01CB01EB01E881F981C0E0D0E004C0AB
S11305C0EF010190F081E02D309779F002811381E1
S11305D02481358112964D915D916D917C91159791
S11305E040175107620773075CF71196FC93EE936B
S11305F0209721F4FC01B183A08302C0B983A883AE
S1130600DF91CF911F910F910895DC01ED91FC9141
S11306101197309759F48FEF8093EC008093ED009D
S11306208093EE0081E083BF8895FCCF20813181E7
S11306302D933C93CF010895FB0120813181FC016E
S113064031832083FB01918380830895FB01208102
S11306503181FC0131832083FB01918380830895E0
S1130660DC01ED91FC911197208131812D933C9314
S1130670CF010895CF93DF93E0910201F09103013C
S1130680C281D381E0912601F0912701309719F1BD
S11306908091040190910501892BE9F0209769F07C
S11306A086819781A085B1854E815F816885798532
S11306B0841B950BA60BB70B72F484E091E00E94A7
S11306C0300362E071E00E94260380910201909160
S11306D003010E948302DF91CF9108951F920F922C
S11306E00FB60F9211240F931F932F933F934F93A1
S11306F05F936F937F938F939F93AF93BF93EF9386
S1130700FF9380911E0190911F01AC01092E000CF2
S1130710660B770B9A0111270027409184005091B2
S1130720850060E070E0402B512B622B732B4093CB
S11307302001509321016093220170932301B09B07
S11307401AC00196092E000CAA0BBB0BBC0155273D
S113075044278091840090918500A0E0B0E0842B30
S1130760952BA62BB72B8093200190932101A09366
S11307702201B0932301E091C001F091C1013097AF
S113078039F060E070E08091280190912901099589
S11307900E943A03FF91EF91BF91AF919F918F9186
S11307A07F916F915F914F913F912F911F910F9185
S11307B00F900FBE0F901F9018951F920F920FB6B7
S11307C00F9211240F931F932F933F934F935F9393
S11307D06F937F938F939F93AF93BF93EF93FF9305
S11307E080911E0190911F01AC01092E000C660B33
S11307F0770B9A01112700274091840050918500BE
S113080060E070E0402B512B622B732B409320014E
S1130810509321016093220170932301B09B1AC06D
S11308200196092E000CAA0BBB0BBC0155274427CB
S11308308091840090918500A0E0B0E0842B952BFA
S1130840A62BB72B8093200190932101A093220122
S1130850B0932301E091C201F091C301309739F0C4
S113086061E070E080912A0190912B0109950E942A
S11308703A03FF91EF91BF91AF919F918F917F9137
S11308806F915F914F913F912F911F910F910F9015
S11308900FBE0F901F9018951F920F920FB60F92D4
S11308A011240F931F932F933F934F935F936F9351
S11308B07F938F939F93AF93BF93EF93FF93809115
S11308C01E0190911F01AC01092E000C660B770BE1
S11308D09A0111270027409184005091850060E01F
S11308E070E0402B512B622B732B409320015093CB
S11308F021016093220170932301B09B1AC00196D9
S1130900092E000CAA0BBB0BBC0155274427809170
S1130910840090918500A0E0B0E0842B952BA62B59
S1130920B72B8093200190932101A0932201B093CF
S11309302301E091C401F091C501309739F062E0E0
S113094070E080912C0190912D0109950E943A0349
S1130950FF91EF91BF91AF919F918F917F916F9193
S11309605F914F913F912F911F910F910F900FBE67
S11309700F901F9018951F920F920FB60F9211248B
S11309800F931F932F933F934F935F936F937F9393
S11309908F939F93AF93BF93EF93FF9380911E0127
S11309A090911F01AC01092E000C660B770B9A0184
S11309B011270027409184005091850060E070E089
S11309C0402B512B622B732B409320015093210118
S11309D06093220170932301B09B1AC00196092EE3
S11309E0000CAA0BBB0BBC01552744278091840043
S11309F090918500A0E0B0E0842B952BA62BB72B1B
S1130A008093200190932101A0932201B0932301AC
S1130A10E091C601F091C701309739F063E070E0CE
S1130A2080912E0190912F0109950E943A03FF9124
S1130A30EF91BF91AF919F918F917F916F915F9152
S1130A404F913F912F911F910F910F900FBE0F90D7
S1130A501F9018951F920F920FB60F9211240F93A7
S1130A601F932F933F934F935F936F937F938F9332
S1130A709F93AF93BF93EF93FF9380911E01909147
S1130A801F01AC01092E000C660B770B9A0111278C
S1130A900027409184005091850060E070E0402B75
S1130AA0512B622B732B40932001509321016093AF
S1130AB0220170932301B09B1AC00196092E000CE9
S1130AC0AA0BBB0BBC01552744278091840090914D
S1130AD08500A0E0B0E0842B952BA62BB72B809348
S1130AE0200190932101A0932201B0932301E0916E
S1130AF0C801F091C901309739F064E070E0809149
S1130B0030019091310109950E943A03FF91EF91D0
S1130B10BF91AF919F918F917F916F915F914F9111
S1130B203F912F911F910F910F900FBE0F901F9027
S1130B3018951F920F920FB60F9211240F931F93C3
S1130B402F933F934F935F936F937F938F939F93D1
S1130B50AF93BF93EF93FF9380911E0190911F0178
S1130B60AC01092E000C660B770B9A0111270027A4
S1130B70409184005091850060E070E0402B512B3F
S1130B80622B732B40932001509321016093220127
S1130B9070932301B09B1AC00196092E000CAA0B76
S1130BA0BB0BBC015527442780918400909185009C
S1130BB0A0E0B0E0842B952BA62BB72B80932001CB
S1130BC090932101A0932201B0932301E091CA01E3
S1130BD0F091CB01309739F065E070E080913201FB
S1130BE09091330109950E943A03FF91EF91BF91CF
S1130BF0AF919F918F917F916F915F914F913F91B1
S1130C002F911F910F910F900FBE0F901F90189569
S1130C101F920F920FB60F9211240F931F932F93CD
S1130C203F934F935F936F937F938F939F93AF9370
S1130C30BF93EF93FF9380911E0190911F01AC012C
S1130C40092E000C660B770B9A011127002740919F
S1130C5084005091850060E070E0402B512B622BA2
S1130C60732B4093200150932101609322017093D0
S1130C702301B09B1AC00196092E000CAA0BBB0BD2
S1130C80BC01552744278091840090918500A0E001
S1130C90B0E0842B952BA62BB72B80932001909347
S1130CA02101A0932201B0932301E091CC01F091A2
S1130CB0CD01309739F066E070E080913401909175
S1130CC0350109950E943A03FF91EF91BF91AF91CD
S1130CD09F918F917F916F915F914F913F912F9150
S1130CE01F910F910F900FBE0F901F9018951F9298
S1130CF00F920FB60F9211240F931F932F933F93CC
S1130D004F935F936F937F938F939F93AF93BF930F
S1130D10EF93FF9380911E0190911F01AC01092E66
S1130D20000C660B770B9A01112700274091840071
S1130D305091850060E070E0402B512B622B732BA7
S1130D404093200150932101609322017093230169
S1130D50B09B1AC00196092E000CAA0BBB0BBC0158
S1130D60552744278091840090918500A0E0B0E04D
S1130D70842B952BA62BB72B8093200190932101D4
S1130D80A0932201B0932301E091CE01F091CF0111
S1130D90309739F067E070E0809136019091370127
S1130DA009950E943A03FF91EF91BF91AF919F91F2
S1130DB08F917F916F915F914F913F912F911F91EF
S1130DC00F910F900FBE0F901F9018951F920F92C6
S1130DD00FB60F9211240F931F932F933F934F93AA
S1130DE05F936F937F938F939F93AF93BF93EF938F
S1130DF0FF9380911E0190911F01AC01092E000CFC
S1130E00660B770B9A0111270027409184005091BB
S1130E10850060E070E0402B512B622B732B4093D4
S1130E202001509321016093220170932301B09B10
S1130E301AC00196092E000CAA0BBB0BBC01552746
S1130E4044278091840090918500A0E0B0E0842B39
S1130E50952BA62BB72B8093200190932101A0936F
S1130E602201B0932301E091D001F091D101309798
S1130E7039F068E070E0809138019091390109956A
S1130E800E943A03FF91EF91BF91AF919F918F918F
S1130E907F916F915F914F913F912F911F910F918E
S1130EA00F900FBE0F901F9018951F920F920FB6C0
S1130EB00F9211240F931F932F933F934F935F939C
S1130EC06F937F938F939F93AF93BF93EF93FF930E
S1130ED080911E0190911F01AC01092E000C660B3C
S1130EE0770B9A01112700274091840050918500C7
S1130EF060E070E0402B512B622B732B4093200158
S1130F00509321016093220170932301B09B1AC076
S1130F100196092E000CAA0BBB0BBC0155274427D4
S1130F208091840090918500A0E0B0E0842B952B03
S1130F30A62BB72B8093200190932101A09322012B
S1130F40B0932301E091D201F091D301309739F0AD
S1130F5069E070E080913A0190913B0109950E940B
S1130F603A03FF91EF91BF91AF919F918F917F9140
S1130F706F915F914F913F912F911F910F910F901E
S1130F800FBE0F901F9018951F920F920FB60F92DD
S1130F9011240F931F932F933F934F935F936F935A
S1130FA07F938F939F93AF93BF93EF93FF9380911E
S1130FB01E0190911F01AC01092E000C660B770BEA
S1130FC09A0111270027409184005091850060E028
S1130FD070E0402B512B622B732B409320015093D4
S1130FE021016093220170932301B09B1AC00196E2
S1130FF0092E000CAA0BBB0BBC015527442780917A
S1131000840090918500A0E0B0E0842B952BA62B62
S1131010B72B8093200190932101A0932201B093D8
S11310202301E091D401F091D501309739F06AE0C1
S113103070E080913C0190913D0109950E943A0332
S1131040FF91EF91BF91AF919F918F917F916F919C
S11310505F914F913F912F911F910F910F900FBE70
S11310600F901F9018951F920F920FB60F92112494
S11310700F931F932F933F934F935F936F937F939C
S11310808F939F93AF93BF93EF93FF9380911E0130
S113109090911F01AC01092E000C660B770B9A018D
S11310A011270027409184005091850060E070E092
S11310B0402B512B622B732B409320015093210121
S11310C06093220170932301B09B1AC00196092EEC
S11310D0000CAA0BBB0BBC0155274427809184004C
S11310E090918500A0E0B0E0842B952BA62BB72B24
S11310F08093200190932101A0932201B0932301B6
S1131100E091D601F091D701309739F06BE070E0AF
S113111080913E0190913F0109950E943A03FF910D
S1131120EF91BF91AF919F918F917F916F915F915B
S11311304F913F912F911F910F910F900FBE0F90E0
S11311401F9018951F920F920FB60F9211240F93B0
S11311501F932F933F934F935F936F937F938F933B
S11311609F93AF93BF93EF93FF9380911E01909150
S11311701F01AC01092E000C660B770B9A01112795
S11311800027409184005091850060E070E0402B7E
S1131190512B622B732B40932001509321016093B8
S11311A0220170932301B09B1AC00196092E000CF2
S11311B0AA0BBB0BBC015527442780918400909156
S11311C08500A0E0B0E0842B952BA62BB72B809351
S11311D0200190932101A0932201B0932301E09177
S11311E0D801F091D901309739F06CE070E080912A
S11311F040019091410109950E943A03FF91EF91BA
S1131200BF91AF919F918F917F916F915F914F911A
S11312103F912F911F910F910F900FBE0F901F9030
S113122018951F920F920FB60F9211240F931F93CC
S11312302F933F934F935F936F937F938F939F93DA
S1131240AF93BF93EF93FF9380911E0190911F0181
S1131250AC01092E000C660B770B9A0111270027AD
S1131260409184005091850060E070E0402B512B48
S1131270622B732B40932001509321016093220130
S113128070932301B09B1AC00196092E000CAA0B7F
S1131290BB0BBC01552744278091840090918500A5
S11312A0A0E0B0E0842B952BA62BB72B80932001D4
S11312B090932101A0932201B0932301E091DA01DC
S11312C0F091DB01309739F06DE070E080914201DC
S11312D09091430109950E943A03FF91EF91BF91C8
S11312E0AF919F918F917F916F915F914F913F91BA
S11312F02F911F910F910F900FBE0F901F90189573
S11313001F920F920FB60F9211240F931F932F93D6
S11313103F934F935F936F937F938F939F93AF9379
S1131320BF93EF93FF9380911E0190911F01AC0135
S1131330092E000C660B770B9A01112700274091A8
S113134084005091850060E070E0402B512B622BAB
S1131350732B4093200150932101609322017093D9
S11313602301B09B1AC00196092E000CAA0BBB0BDB
S1131370BC01552744278091840090918500A0E00A
S1131380B0E0842B952BA62BB72B80932001909350
S11313902101A0932201B0932301E091DC01F0919B
S11313A0DD01309739F06EE070E080914401909156
S11313B0450109950E943A03FF91EF91BF91AF91C6
S11313C09F918F917F916F915F914F913F912F9159
S11313D01F910F910F900FBE0F901F9018951F92A1
S11313E00F920FB60F9211240F931F932F933F93D5
S11313F04F935F936F937F938F939F93AF93BF9319
S1131400EF93FF9380911E0190911F01AC01092E6F
S1131410000C660B770B9A0111270027409184007A
S11314205091850060E070E0402B512B622B732BB0
S11314304093200150932101609322017093230172
S1131440B09B1AC00196092E000CAA0BBB0BBC0161
S1131450552744278091840090918500A0E0B0E056
S1131460842B952BA62BB72B8093200190932101DD
S1131470A0932201B0932301E091DE01F091DF01FA
S1131480309739F06FE070E0809146019091470108
S113149009950E943A03FF91EF91BF91AF919F91FB
S11314A08F917F916F915F914F913F912F911F91F8
S11314B00F910F900FBE0F901F9018951F920F92CF
S11314C00FB60F9211240F931F932F933F934F93B3
S11314D05F936F937F938F939F93AF93BF93EF9398
S11314E0FF9380911E0190911F01AC01092E000C05
S11314F0660B770B9A0111270027409184005091C5
S1131500850060E070E0402B512B622B732B4093DD
S11315102001509321016093220170932301B09B19
S11315201AC00196092E000CAA0BBB0BBC0155274F
S113153044278091840090918500A0E0B0E0842B42
S1131540952BA62BB72B8093200190932101A09378
S11315502201B0932301E091E001F091E101309781
S113156039F060E170E0809148019091490109955A
S11315700E943A03FF91EF91BF91AF919F918F9198
S11315807F916F915F914F913F912F911F910F9197
S11315900F900FBE0F901F9018951F920F920FB6C9
S11315A00F9211240F931F932F933F934F935F93A5
S11315B06F937F938F939F93AF93BF93EF93FF9317
S11315C080911E0190911F01AC01092E000C660B45
S11315D0770B9A01112700274091840050918500D0
S11315E060E070E0402B512B622B732B4093200161
S11315F0509321016093220170932301B09B1AC080
S11316000196092E000CAA0BBB0BBC0155274427DD
S11316108091840090918500A0E0B0E0842B952B0C
S1131620A62BB72B8093200190932101A093220134
S1131630B0932301E091E201F091E301309739F096
S113164061E170E080914A0190914B0109950E94FB
S11316503A03FF91EF91BF91AF919F918F917F9149
S11316606F915F914F913F912F911F910F910F9027
S11316700FBE0F901F9018950E943A03789481E052
S113168083BF8895FCCF1F920F920FB60F9211243F
S11316902F933F934F935F936F937F938F939F9376
S11316A0EF93FF9380911E0190911F0101969093F7
S11316B01F0180931E01E0912401F09125013097D0
S11316C001F1428153816481758186179707C9F4BA
S11316D0CA012091840030918500421B530B413094
S11316E0510529F48091840090918500019690938E
S11316F0890080938800EFE6F0E080818260808337
S113170005C0EFE6F0E080818D7F8083FF91EF914B
S11317109F918F917F916F915F914F913F912F9105
S11317200F900FBE0F901F9018951F920F920FB637
S11317300F921124CF92DF92EF92FF922F933F9357
S11317404F935F936F937F938F939F93AF93BF93C5
S1131750EF93FF9380911E0190911F016C01092E5C
S1131760000CEE08FF087601DD24CC2440918400AF
S11317705091850060E070E0C42AD52AE62AF72A51
S1131780B09B1EC06C012FEFC21AD20A0D2C000CA4
S1131790EE08FF08D60199278827C0908400D090CE
S11317A08500E12CF12CC82AD92AEA2AFB2A08C090
S11317B084E291E00E94050366E271E00E94A302C4
S11317C0E0912401F0912501309769F082819381A1
S11317D0A481B5818C199D09AE09BF091816190693
S11317E01A061B062CF7309721F182819381A4817C
S11317F0B58120911E0130911F012A173B07C9F4BE
S11318009C014091840050918500841B950B0197A5
S113181031F420918400309185002F5F3F4F309345
S1131820890020938800EFE6F0E080818260808365
S113183005C0EFE6F0E080818D7F80830E943A034B
S1131840FF91EF91BF91AF919F918F917F916F9194
S11318505F914F913F912F91FF90EF90DF90CF9048
S11318600F900FBE0F901F9018953F924F925F926A
S11318706F927F928F929F92AF92BF92CF92DF929C
S1131880EF92FF920F931F93CF93DF932B013C01B1
S113189049015A018FB78078382EF89486E091E098
S11318A00E940503EC011B870A87FD86EC86DF8610
S11318B0CE86332061F0E0910001F09101010280B5
S11318C0F381E02D82819381A481B58108C0809148
S11318D0200190912101A0912201B0912301480E91
S11318E0591E6A1E7B1E4A825B826C827D8218149A
S11318F019041A041B0444F00F2E88248A94982C8B
S1131900A82CFFE7BF2EF02D840C951CA61CB71C39
S11319108E829F82A886B98620911E0130911F0174
S1131920C901032E000CAA0BBB0BDC0199278827E5
S1131930409184005091850060E070E0842B952BE9
S1131940A62BB72BB09B13C0C9010196092E000C1E
S1131950AA0BBB0BDC019927882740918400509186
S1131960850060E070E0842B952BA62BB72B481ADA
S1131970590A6A0A7B0A1414150416041704ACF5F0
S113198064E271E0CE010E94D402E0912401F0915E
S11319902501309721F182819381A481B581209121
S11319A01E0130911F012A173B07C9F49C01409185
S11319B0840050918500841B950B019731F420918C
S11319C08400309185002F5F3F4F3093890020932E
S11319D08800EFE6F0E080818260808339C0EFE622
S11319E0F0E080818D7F808333C066E271E0CE01B8
S11319F00E94A302332061F18091040190910501BA
S1131A00892B31F1E0912601F0912701868197819C
S1131A10A085B185E0910201F09103010280F38178
S1131A20E02D4681578160857185841B950BA60B3B
S1131A30B70B72F484E091E00E94300362E071E03D
S1131A400E94260380910201909103010E94830267
S1131A50332009F07894CE01DF91CF911F910F913B
S1131A60FF90EF90DF90CF90BF90AF909F908F90BA
S1131A707F906F905F904F903F900895CF92DF9248
S1131A80EF92FF920F931F93CF93DF93EC017B01AF
S1131A906A011FB71078F894A881B981109719F4D6
S1131AA035C0A081B1811496ED91FC9115973097C2
S1131AB0C1F72091000130910101A217B30711F081
S1131AC0111107C0112309F44AC078948FEF9FEFD6
S1131AD04EC08A819B81009719F0FC011582148203
S1131AE03B832A83F901D583C483CD010E948302F9
S1131AF0E0910001F091010182819381892B31F4FD
S1131B00112381F1789480E090E031C0809100014C
S1131B109091010199838883112329F08A819B8103
S1131B20019709F07894B601CE01F7010995F82ED2
S1131B30092F8FB7F894198218828A819B81823089
S1131B40910538F01B821A82FC01158214820E94CE
S1131B508302112351F078948F2D902F08C08FEFBA
S1131B609FEF05C080E090E002C08F2D902FDF91A1
S1131B70CF911F910F91FF90EF90DF90CF90089538
S1131B80009100011091010186E291E00E94050399
S1131B90EC01F8019383828378946C857D854E856E
S1131BA05F858A859B850E943E0D8FB7F89466E019
S1131BB071E0CE010E941C03E0910201F091030147
S1131BC00190F081E02DC281D381E0912601F09152
S1131BD027013097A1F0209799F286819781A085FB
S1131BE0B1854E815F8168857985841B950BA60B31
S1131BF0B70B181619061A061B060CF0C1CF82E0A3
S1131C0091E00E94300364E071E00E942603A091F9
S1131C100201B091030102C0A081B1811496ED913B
S1131C20FC9115973097C1F7CD010E948302A8CF8C
S1131C308C017B016A018FB7F8940E94E4017894C7
S1131C40E114F10441F020E030E0A90160E070E02B
S1131C50CB010E94350C8FB7F8940E943C0BFB011A
S1131C6080819181028002C0880F991F0A94E2F753
S1131C708CB90895DC012D923D924D925D926D9246
S1131C807D928D929D92AD92BD92CD92DD92ED9218
S1131C90FD920D931D93CD93DD93FF91EF918DB73D
S1131CA08D938EB78D938FB78D93ED93FD93882786
S1131CB099270994DC01CB0181309105811D2D9078
S1131CC03D904D905D906D907D908D909D90AD90E8
S1131CD0BD90CD90DD90ED90FD900D911D91CD9135
S1131CE0DD91ED91FD910D90F894FEBF0FBEEDBF17
S10D1CF0ED91FD910994F894FFCFE3
S1131CFAE401E4014C01010251151001111E111BEA
S1111D0A500B411B411F1101511F510B28C0EA
S9030000FC
