:100000000C942E000C9420050C948F050C94FE0586
:100010000C946D060C94DC060C944B000C94470D6C
:100020000C944B000C94F50C0C944B070C94BA07F1
:100030000C9429080C9498080C9407090C947609E0
:100040000C94E5090C94540A0C94C30A0C94320BDA
:100050000C94A10B0C94100C0C947F0C11241FBE5B
:10006000CFEFD4E0DEBFCDBF11E0A0E0B1E0EAEE1B
:10007000F1E202C005900D92AE31B107D9F724E04C
:10008000AEE1B1E001C01D92A137B207E1F70E94D5
:1000900038020C94F3100C940000CF92DF92EF9290
:1000A000FF920F931F93CF93DF93EC0140E050E05A
:1000B00068EE71E0888599850E94F00E40E050E07E
:1000C00062E172E0888599850E94F00E0C811D81A5
:1000D000C12CD12C0F2EF2EAEF2EF2E0FF2EF02DE4
:1000E00020E030E0A90160E070E0CB010E94E70D64
:1000F0000E811F8120E030E0A90160E070E0CB01BB
:100100000E94E70DDF91CF911F910F91FF90EF902B
:10011000DF90CF900895AF92BF92CF92DF92EF928F
:10012000FF920F931F93CF93DF93EC01E885F9853E
:10013000A480B580629914C0A114B10489F0C12CC7
:10014000D12C0F2EF0EDEF2EF1E0FF2EF02D8F01D0
:1001500020E030E0A90160E070E0CB010E94E70DF3
:10016000639916C0AA94AB2899F008851985CC2408
:10017000C394D12C0F2EF0EDEF2EF1E0FF2EF02DD9
:1001800020E030E0A90160E070E0CB010E94E70DC3
:10019000DF91CF911F910F91FF90EF90DF90CF9063
:1001A000BF90AF900895CF92DF92EF92FF920F939E
:1001B0001F93CF93DF93EC011E991DC0E885F9854D
:1001C0000480F581E02D3296EE0FFF1FE80FF91F36
:1001D00000811181CC24C394D12C0F2EF6E3EF2E95
:1001E000F3E0FF2EF02D20E030E0A90160E070E0A8
:1001F000CB010E94E70D1F991DC0E885F985048099
:10020000F581E02D3296EE0FFF1FEC0FFD1F0081F0
:100210001181CC24CA94DC2C0F2EF6E3EF2EF3E0F0
:10022000FF2EF02D20E030E0A90160E070E0CB016E
:100230000E94E70D1C991BC0E885F9858481958192
:100240000296880F991FC80FD91F08811981C12CE8
:10025000D12C0F2EF9E6EF2EF3E0FF2EF02D20E04B
:1002600030E0A90160E070E0CB010E94E70DDF9172
:10027000CF911F910F91FF90EF90DF90CF90089555
:10028000CF93DF93CDB7DEB766970FB6F894DEBF96
:100290000FBECDBF6630710508F043C096E1E8E0BF
:1002A000F1E0DE01119601900D929A95E1F790ED43
:1002B000980F9A3070F4E82FF0E0F097EE0FFF1FE0
:1002C00081E090E08C0F9D1FE80FF91F4081518164
:1002D00002C048E250ECFB01F595E795E451FF4F71
:1002E000DB01A170BB2760FD02C060EF01C06FE0C1
:1002F00020E030E013C0842F8F70529542954F70EC
:1003000045275F704527109711F08295807F908177
:100310009623892B808335962F5F3F4F24303105FC
:1003200054F366960FB6F894DEBF0FBECDBFDF91D3
:10033000CF910895EF92FF920F931F93CF93DF9386
:10034000EC017B01CB0164E670E00E942F100AE013
:1003500010E0B8010E942F10862FBE01805D0E9420
:1003600040012196C701B8010E942F10BE01805D97
:100370000E944001DF91CF911F910F91FF90EF906C
:100380000895FC0184819581009721F481E0809398
:10039000ED000895019719F480E18093ED00089530
:1003A000FC01758364830E94C1010895FC0184816E
:1003B0009581009729F0019731F082E090E005C027
:1003C00080E090E002C084E090E00E949A010895ED
:1003D000E1E6F0E080E8808310828FE08093E70020
:1003E00087EB8093E50087E08093E60080EC8093C4
:1003F000E400000081E08093ED0060E070E080E3C5
:100400000E94400161E070E080E30E94400164E0EE
:1004100070E080E30E94400165E070E080E30E94AC
:10042000400108958DB3806C8DBB85B1806885B91E
:10043000ECE6F0E080818068808385B1806485B9D6
:100440008081806480838EB188608EB9ABE6B0E035
:100450008C9188608C938EB184608EB98C9184600D
:100460008C9385B1806185B9808180618083089596
:10047000CF93DF93CDB7DEB7E4970FB6F894DEBF26
:100480000FBECDBF1A8219821C821B821E821D8262
:1004900018861F821A8619861C861B861E861D8654
:1004A0009E012F5F3F4F388B2F87CE0105969A8B89
:1004B000898B44E050E05C8B4B8B1E8A1D8A188E22
:1004C0001F8A1A8E198E1C8E1B8E1E8E1D8E38A3AF
:1004D0002F8F9AA389A326E030E03CA32BA31EA272
:1004E0001DA218A61FA21AA619A61CA61BA61EA608
:1004F0001DA69E01255F3F4F38AB2FA7205F3F4FC2
:100500003AAB29AB9CAB8BAB41E06BE870E08696D5
:100510000E94CA0F42E063ED70E0CE018B960E940C
:10052000CA0F40E050E06DE470E0CE018B960E946F
:10053000E50FE4960FB6F894DEBF0FBECDBFDF9196
:10054000CF910895CF92DF92EF92FF920F931F9376
:10055000CF93DF93EC018C859D85892BD9F4488559
:10056000598560E170E18C819D810E94F00EC12C63
:10057000D12C0F2EF2EAEF2EF2E0FF2EF02D8E019D
:1005800020E030E0A90169E07DE380E090E00E9496
:10059000E70D2EC04885598560E270E18C819D8110
:1005A0000E94F00E2C853D85032E000C440B550B4C
:1005B00060E271EA87E090E00E944310ADE7B0E0AE
:1005C0000E94621020EA3FE040E050E00E944310A9
:1005D000CA01B901C12CD12C0F2EF2EAEF2EF2E0A4
:1005E000FF2EF02D8E0120E030E0A9010E94E70DE2
:1005F000DF91CF911F910F91FF90EF90DF90CF90FF
:100600000895CF92DF92EF92FF920F931F93613084
:10061000710599F41E9923C06B010F2EF6E3EF2E9E
:10062000F3E0FF2EF02D8C0120E030E0A90160E026
:1006300070E0CB010E94E70D12C01F9910C06B0142
:100640000F2EF6E3EF2EF3E0FF2EF02D8C0120E0CD
:1006500030E0A90160E070E0CB010E94E70D1F913E
:100660000F91FF90EF90DF90CF900895CF92DF929F
:10067000EF92FF920F931F93CF93DF93FC0142857C
:100680005385460F571F44365105D0F46B01EC01DA
:100690005387428766ED71E0868197810E94F00E54
:1006A0000F2EF1E0EF2EF3E0FF2EF02D8E0120E073
:1006B00030E0A9016FE974E280E090E00E94E70D6C
:1006C000DF91CF911F910F91FF90EF90DF90CF902E
:1006D0000895CF92DF92EF92FF920F931F93FC0148
:1006E00082859385009729F48485958593878287F1
:1006F00004C0958784871386128606811781C28479
:10070000D3840F2EF6EDEF2EF1E0FF2EF02D20E03A
:1007100030E0A90160E070E0CB010E94E70D1F917D
:100720000F91FF90EF90DF90CF900895CF93DF93DC
:1007300000D000D0CDB7DEB780E090E018C0AC01AB
:100740004F5F5F4F9A0122953295307F3227207F8D
:1007500032272F5F3D4F82959295907F9827807F1B
:100760009827FC01EF5FFD4F31832083CA018E3053
:1007700091052CF31092E2021092E10280E090E0E9
:1007800015C0AC014F5F5F4F6DE1649F9001659FA5
:10079000300D1124245B3E4F689FF001699FF00DDE
:1007A0001124E45BFE4F31832083CA01833091051D
:1007B00044F31092A4011092A3011A82198232C04C
:1007C0002DE149815A81249FC001259F900D11245C
:1007D000FC01EE5AFE4FFC83EB83CF010E94B21066
:1007E00020E649815A81249FC001259F900D112444
:1007F000835B9C4FEB81FC81918B808B938B828BF5
:1008000082E79FE0968B858B8DE1849FF001859F29
:10081000F00D1124E45BFE4F158214824F5F5F4F91
:100820005A83498329813A81243031054CF2E4EE20
:10083000F1E0118210821582148213821282E1E6A5
:10084000F0E080E88083108210928500109284008E
:1008500084E08093810081E080936F000F900F907F
:100860000F900F90DF91CF910895CF93DF9300D039
:10087000CDB7DEB79A838983809100019091010101
:1008800006960E94B210892B59F489819A8190931F
:1008900001018093000161E070E006960E94D21091
:1008A0000F900F90DF91CF9108950F931F93CF93E7
:1008B000DF93DC01CB01EB01E881F981C0E0D0E0FE
:1008C00004C0EF010190F081E02D309779F00681AE
:1008D00017812085318516964D915D916D917C91A2
:1008E000199740175107620773075CF71196FC933D
:1008F000EE93209721F4FC01B183A08302C0B98359
:10090000A883DF91CF911F910F9108950F931F93AB
:10091000CF93DF93DC01CB01EB01E881F981C0E0EB
:10092000D0E004C0EF010190F081E02D309779F024
:10093000028113812481358112964D915D916D91D3
:100940007C91159740175107620773075CF7119662
:10095000FC93EE93209721F4FC01B183A08302C0A5
:10096000B983A883DF91CF911F910F910895DC0186
:10097000ED91FC911197309759F48FEF8093EC0033
:100980008093ED008093EE0081E083BF8895FCCFDB
:10099000208131812D933C93CF010895FB0120816B
:1009A0003181FC0131832083FB0191838083089591
:1009B000FB0120813181FC0131832083FB01918384
:1009C00080830895DC01ED91FC91119720813181A4
:1009D0002D933C93CF010895CF93DF93E0910201D3
:1009E000F0910301C281D381E0912601F0912701AA
:1009F000309719F18091040190910501892BE9F05C
:100A0000209769F086819781A085B1854E815F81AD
:100A100068857985841B950BA60BB70B72F484E06F
:100A200091E00E94E20462E071E00E94D8048091AB
:100A30000201909103010E943504DF91CF91089546
:100A40001F920F920FB60F9211240F931F932F93A3
:100A50003F934F935F936F937F938F939F93AF9346
:100A6000BF93EF93FF9380911E0190911F01AC0102
:100A7000092E000C660B770B9A0111270027409175
:100A800084005091850060E070E0402B512B622B78
:100A9000732B4093200150932101609322017093A6
:100AA0002301B09B1AC00196092E000CAA0BBB0BA8
:100AB000BC01552744278091840090918500A0E0D7
:100AC000B0E0842B952BA62BB72B8093200190931D
:100AD0002101A0932201B0932301E091C001F09184
:100AE000C101309739F060E070E080912801909169
:100AF000290109950E94EC04FF91EF91BF91AF91FC
:100B00009F918F917F916F915F914F913F912F9125
:100B10001F910F910F900FBE0F901F9018951F926D
:100B20000F920FB60F9211240F931F932F933F93A1
:100B30004F935F936F937F938F939F93AF93BF93E5
:100B4000EF93FF9380911E0190911F01AC01092E3C
:100B5000000C660B770B9A01112700274091840047
:100B60005091850060E070E0402B512B622B732B7D
:100B7000409320015093210160932201709323013F
:100B8000B09B1AC00196092E000CAA0BBB0BBC012E
:100B9000552744278091840090918500A0E0B0E023
:100BA000842B952BA62BB72B8093200190932101AA
:100BB000A0932201B0932301E091C201F091C301FF
:100BC000309739F061E070E080912A0190912B011B
:100BD00009950E94EC04FF91EF91BF91AF919F9115
:100BE0008F917F916F915F914F913F912F911F91C5
:100BF0000F910F900FBE0F901F9018951F920F929C
:100C00000FB60F9211240F931F932F933F934F937F
:100C10005F936F937F938F939F93AF93BF93EF9364
:100C2000FF9380911E0190911F01AC01092E000CD1
:100C3000660B770B9A011127002740918400509191
:100C4000850060E070E0402B512B622B732B4093AA
:100C50002001509321016093220170932301B09BE6
:100C60001AC00196092E000CAA0BBB0BBC0155271C
:100C700044278091840090918500A0E0B0E0842B0F
:100C8000952BA62BB72B8093200190932101A09345
:100C90002201B0932301E091C401F091C501309786
:100CA00039F062E070E080912C0190912D0109955E
:100CB0000E94EC04FF91EF91BF91AF919F918F91B2
:100CC0007F916F915F914F913F912F911F910F9164
:100CD0000F900FBE0F901F9018951F920F920FB696
:100CE0000F9211240F931F932F933F934F935F9372
:100CF0006F937F938F939F93AF93BF93EF93FF93E4
:100D000080911E0190911F01AC01092E000C660B11
:100D1000770B9A011127002740918400509185009C
:100D200060E070E0402B512B622B732B409320012D
:100D3000509321016093220170932301B09B1AC04C
:100D40000196092E000CAA0BBB0BBC0155274427AA
:100D50008091840090918500A0E0B0E0842B952BD9
:100D6000A62BB72B8093200190932101A093220101
:100D7000B0932301E091C601F091C701309739F09B
:100D800063E070E080912E0190912F0109950E94FF
:100D9000EC04FF91EF91BF91AF919F918F917F9163
:100DA0006F915F914F913F912F911F910F910F90F4
:100DB0000FBE0F901F9018951F920F920FB60F92B3
:100DC00011240F931F932F933F934F935F936F9330
:100DD0007F938F939F93AF93BF93EF93FF938091F4
:100DE0001E0190911F01AC01092E000C660B770BC0
:100DF0009A0111270027409184005091850060E0FE
:100E000070E0402B512B622B732B409320015093A9
:100E100021016093220170932301B09B1AC00196B7
:100E2000092E000CAA0BBB0BBC015527442780914F
:100E3000840090918500A0E0B0E0842B952BA62B38
:100E4000B72B8093200190932101A0932201B093AE
:100E50002301E091C801F091C901309739F064E0B5
:100E600070E0809130019091310109950E94EC046D
:100E7000FF91EF91BF91AF919F918F917F916F9172
:100E80005F914F913F912F911F910F910F900FBE46
:100E90000F901F9018951F920F920FB60F9211246A
:100EA0000F931F932F933F934F935F936F937F9372
:100EB0008F939F93AF93BF93EF93FF9380911E0106
:100EC00090911F01AC01092E000C660B770B9A0163
:100ED00011270027409184005091850060E070E068
:100EE000402B512B622B732B4093200150932101F7
:100EF0006093220170932301B09B1AC00196092EC2
:100F0000000CAA0BBB0BBC01552744278091840021
:100F100090918500A0E0B0E0842B952BA62BB72BF9
:100F20008093200190932101A0932201B09323018B
:100F3000E091CA01F091CB01309739F065E070E0A3
:100F4000809132019091330109950E94EC04FF9148
:100F5000EF91BF91AF919F918F917F916F915F9131
:100F60004F913F912F911F910F910F900FBE0F90B6
:100F70001F9018951F920F920FB60F9211240F9386
:100F80001F932F933F934F935F936F937F938F9311
:100F90009F93AF93BF93EF93FF9380911E01909126
:100FA0001F01AC01092E000C660B770B9A0111276B
:100FB0000027409184005091850060E070E0402B54
:100FC000512B622B732B409320015093210160938E
:100FD000220170932301B09B1AC00196092E000CC8
:100FE000AA0BBB0BBC01552744278091840090912C
:100FF0008500A0E0B0E0842B952BA62BB72B809327
:10100000200190932101A0932201B0932301E0914C
:10101000CC01F091CD01309739F066E070E080911D
:1010200034019091350109950E94EC04FF91EF91F4
:10103000BF91AF919F918F917F916F915F914F91F0
:101040003F912F911F910F910F900FBE0F901F9006
:1010500018951F920F920FB60F9211240F931F93A2
:101060002F933F934F935F936F937F938F939F93B0
:10107000AF93BF93EF93FF9380911E0190911F0157
:10108000AC01092E000C660B770B9A011127002783
:10109000409184005091850060E070E0402B512B1E
:1010A000622B732B40932001509321016093220106
:1010B00070932301B09B1AC00196092E000CAA0B55
:1010C000BB0BBC015527442780918400909185007B
:1010D000A0E0B0E0842B952BA62BB72B80932001AA
:1010E00090932101A0932201B0932301E091CE01BE
:1010F000F091CF01309739F067E070E080913601D0
:101100009091370109950E94EC04FF91EF91BF91F6
:10111000AF919F918F917F916F915F914F913F918F
:101120002F911F910F910F900FBE0F901F90189548
:101130001F920F920FB60F9211240F931F932F93AC
:101140003F934F935F936F937F938F939F93AF934F
:10115000BF93EF93FF9380911E0190911F01AC010B
:10116000092E000C660B770B9A011127002740917E
:1011700084005091850060E070E0402B512B622B81
:10118000732B4093200150932101609322017093AF
:101190002301B09B1AC00196092E000CAA0BBB0BB1
:1011A000BC01552744278091840090918500A0E0E0
:1011B000B0E0842B952BA62BB72B80932001909326
:1011C0002101A0932201B0932301E091D001F0917D
:1011D000D101309739F068E070E08091380190914A
:1011E000390109950E94EC04FF91EF91BF91AF91F5
:1011F0009F918F917F916F915F914F913F912F912F
:101200001F910F910F900FBE0F901F9018951F9276
:101210000F920FB60F9211240F931F932F933F93AA
:101220004F935F936F937F938F939F93AF93BF93EE
:10123000EF93FF9380911E0190911F01AC01092E45
:10124000000C660B770B9A01112700274091840050
:101250005091850060E070E0402B512B622B732B86
:101260004093200150932101609322017093230148
:10127000B09B1AC00196092E000CAA0BBB0BBC0137
:10128000552744278091840090918500A0E0B0E02C
:10129000842B952BA62BB72B8093200190932101B3
:1012A000A0932201B0932301E091D201F091D301E8
:1012B000309739F069E070E080913A0190913B01FC
:1012C00009950E94EC04FF91EF91BF91AF919F911E
:1012D0008F917F916F915F914F913F912F911F91CE
:1012E0000F910F900FBE0F901F9018951F920F92A5
:1012F0000FB60F9211240F931F932F933F934F9389
:101300005F936F937F938F939F93AF93BF93EF936D
:10131000FF9380911E0190911F01AC01092E000CDA
:10132000660B770B9A01112700274091840050919A
:10133000850060E070E0402B512B622B732B4093B3
:101340002001509321016093220170932301B09BEF
:101350001AC00196092E000CAA0BBB0BBC01552725
:1013600044278091840090918500A0E0B0E0842B18
:10137000952BA62BB72B8093200190932101A0934E
:101380002201B0932301E091D401F091D50130976F
:1013900039F06AE070E080913C0190913D0109953F
:1013A0000E94EC04FF91EF91BF91AF919F918F91BB
:1013B0007F916F915F914F913F912F911F910F916D
:1013C0000F900FBE0F901F9018951F920F920FB69F
:1013D0000F9211240F931F932F933F934F935F937B
:1013E0006F937F938F939F93AF93BF93EF93FF93ED
:1013F00080911E0190911F01AC01092E000C660B1B
:10140000770B9A01112700274091840050918500A5
:1014100060E070E0402B512B622B732B4093200136
:10142000509321016093220170932301B09B1AC055
:101430000196092E000CAA0BBB0BBC0155274427B3
:101440008091840090918500A0E0B0E0842B952BE2
:10145000A62BB72B8093200190932101A09322010A
:10146000B0932301E091D601F091D701309739F084
:101470006BE070E080913E0190913F0109950E94E0
:10148000EC04FF91EF91BF91AF919F918F917F916C
:101490006F915F914F913F912F911F910F910F90FD
:1014A0000FBE0F901F9018951F920F920FB60F92BC
:1014B00011240F931F932F933F934F935F936F9339
:1014C0007F938F939F93AF93BF93EF93FF938091FD
:1014D0001E0190911F01AC01092E000C660B770BC9
:1014E0009A0111270027409184005091850060E007
:1014F00070E0402B512B622B732B409320015093B3
:1015000021016093220170932301B09B1AC00196C0
:10151000092E000CAA0BBB0BBC0155274427809158
:10152000840090918500A0E0B0E0842B952BA62B41
:10153000B72B8093200190932101A0932201B093B7
:101540002301E091D801F091D901309739F06CE096
:1015500070E0809140019091410109950E94EC0456
:10156000FF91EF91BF91AF919F918F917F916F917B
:101570005F914F913F912F911F910F910F900FBE4F
:101580000F901F9018951F920F920FB60F92112473
:101590000F931F932F933F934F935F936F937F937B
:1015A0008F939F93AF93BF93EF93FF9380911E010F
:1015B00090911F01AC01092E000C660B770B9A016C
:1015C00011270027409184005091850060E070E071
:1015D000402B512B622B732B409320015093210100
:1015E0006093220170932301B09B1AC00196092ECB
:1015F000000CAA0BBB0BBC0155274427809184002B
:1016000090918500A0E0B0E0842B952BA62BB72B02
:101610008093200190932101A0932201B093230194
:10162000E091DA01F091DB01309739F06DE070E084
:10163000809142019091430109950E94EC04FF9131
:10164000EF91BF91AF919F918F917F916F915F913A
:101650004F913F912F911F910F910F900FBE0F90BF
:101660001F9018951F920F920FB60F9211240F938F
:101670001F932F933F934F935F936F937F938F931A
:101680009F93AF93BF93EF93FF9380911E0190912F
:101690001F01AC01092E000C660B770B9A01112774
:1016A0000027409184005091850060E070E0402B5D
:1016B000512B622B732B4093200150932101609397
:1016C000220170932301B09B1AC00196092E000CD1
:1016D000AA0BBB0BBC015527442780918400909135
:1016E0008500A0E0B0E0842B952BA62BB72B809330
:1016F000200190932101A0932201B0932301E09156
:10170000DC01F091DD01309739F06EE070E08091FE
:1017100044019091450109950E94EC04FF91EF91DD
:10172000BF91AF919F918F917F916F915F914F91F9
:101730003F912F911F910F910F900FBE0F901F900F
:1017400018951F920F920FB60F9211240F931F93AB
:101750002F933F934F935F936F937F938F939F93B9
:10176000AF93BF93EF93FF9380911E0190911F0160
:10177000AC01092E000C660B770B9A01112700278C
:10178000409184005091850060E070E0402B512B27
:10179000622B732B4093200150932101609322010F
:1017A00070932301B09B1AC00196092E000CAA0B5E
:1017B000BB0BBC0155274427809184009091850084
:1017C000A0E0B0E0842B952BA62BB72B80932001B3
:1017D00090932101A0932201B0932301E091DE01B7
:1017E000F091DF01309739F06FE070E080914601B1
:1017F0009091470109950E94EC04FF91EF91BF91F0
:10180000AF919F918F917F916F915F914F913F9198
:101810002F911F910F910F900FBE0F901F90189551
:101820001F920F920FB60F9211240F931F932F93B5
:101830003F934F935F936F937F938F939F93AF9358
:10184000BF93EF93FF9380911E0190911F01AC0114
:10185000092E000C660B770B9A0111270027409187
:1018600084005091850060E070E0402B512B622B8A
:10187000732B4093200150932101609322017093B8
:101880002301B09B1AC00196092E000CAA0BBB0BBA
:10189000BC01552744278091840090918500A0E0E9
:1018A000B0E0842B952BA62BB72B8093200190932F
:1018B0002101A0932201B0932301E091E001F09176
:1018C000E101309739F060E170E08091480190913A
:1018D000490109950E94EC04FF91EF91BF91AF91EE
:1018E0009F918F917F916F915F914F913F912F9138
:1018F0001F910F910F900FBE0F901F9018951F9280
:101900000F920FB60F9211240F931F932F933F93B3
:101910004F935F936F937F938F939F93AF93BF93F7
:10192000EF93FF9380911E0190911F01AC01092E4E
:10193000000C660B770B9A01112700274091840059
:101940005091850060E070E0402B512B622B732B8F
:101950004093200150932101609322017093230151
:10196000B09B1AC00196092E000CAA0BBB0BBC0140
:10197000552744278091840090918500A0E0B0E035
:10198000842B952BA62BB72B8093200190932101BC
:10199000A0932201B0932301E091E201F091E301D1
:1019A000309739F061E170E080914A0190914B01EC
:1019B00009950E94EC04FF91EF91BF91AF919F9127
:1019C0008F917F916F915F914F913F912F911F91D7
:1019D0000F910F900FBE0F901F9018950E94EC046E
:1019E000789481E083BF8895FCCF1F920F920FB649
:1019F0000F9211242F933F934F935F936F937F9395
:101A00008F939F93EF93FF9380911E0190911F01FD
:101A1000019690931F0180931E01E0912401F091A3
:101A20002501309701F142815381648175818617C8
:101A30009707C9F4CA012091840030918500421BA8
:101A4000530B4130510529F4809184009091850019
:101A500001969093890080938800EFE6F0E0808102
:101A60008260808305C0EFE6F0E080818D7F808317
:101A7000FF91EF919F918F917F916F915F914F9126
:101A80003F912F910F900FBE0F901F9018951F92AE
:101A90000F920FB60F921124CF92DF92EF92FF9226
:101AA0002F933F934F935F936F937F938F939F9366
:101AB000AF93BF93EF93FF9380911E0190911F010D
:101AC0006C01092E000CEE08FF087601DD24CC2401
:101AD000409184005091850060E070E0C42AD52ACE
:101AE000E62AF72AB09B1EC06C012FEFC21AD20A59
:101AF0000D2C000CEE08FF08D60199278827C0900E
:101B00008400D0908500E12CF12CC82AD92AEA2A39
:101B1000FB2A08C084E291E00E94B70466E271E00B
:101B20000E945504E0912401F0912501309769F05D
:101B300082819381A481B5818C199D09AE09BF0969
:101B4000181619061A061B062CF7309721F1828108
:101B50009381A481B58120911E0130911F012A1724
:101B60003B07C9F49C014091840050918500841B7F
:101B7000950B019731F420918400309185002F5FFF
:101B80003F4F3093890020938800EFE6F0E080819A
:101B90008260808305C0EFE6F0E080818D7F8083E6
:101BA0000E94EC04FF91EF91BF91AF919F918F91B3
:101BB0007F916F915F914F913F912F91FF90EF90A7
:101BC000DF90CF900F900FBE0F901F9018953F920F
:101BD0004F925F926F927F928F929F92AF92BF923D
:101BE000CF92DF92EF92FF920F931F93CF93DF93E9
:101BF0002B013C0149015A018FB78078382EF894A7
:101C000086E091E00E94B704EC011B870A87FD86FD
:101C1000EC86DF86CE86332061F0E0910001F09102
:101C200001010280F381E02D82819381A481B5813D
:101C300008C08091200190912101A0912201B091D2
:101C40002301480E591E6A1E7B1E4A825B826C82EB
:101C50007D82181419041A041B0444F00F2E8824E2
:101C60008A94982CA82CFFE7BF2EF02D840C951C8D
:101C7000A61CB71C8E829F82A886B98620911E0161
:101C800030911F01C901032E000CAA0BBB0BDC0114
:101C900099278827409184005091850060E070E08A
:101CA000842B952BA62BB72BB09B13C0C901019693
:101CB000092E000CAA0BBB0BDC0199278827409149
:101CC00084005091850060E070E0842B952BA62B5A
:101CD000B72B481A590A6A0A7B0A14141504160409
:101CE0001704ACF564E271E0CE010E948604E09135
:101CF0002401F0912501309721F182819381A48103
:101D0000B58120911E0130911F012A173B07C9F4AC
:101D10009C014091840050918500841B950B019794
:101D200031F420918400309185002F5F3F4F309334
:101D3000890020938800EFE6F0E080818260808354
:101D400039C0EFE6F0E080818D7F808333C066E2AA
:101D500071E0CE010E945504332061F180910401AD
:101D600090910501892B31F1E0912601F091270135
:101D700086819781A085B185E0910201F0910301F0
:101D80000280F381E02D4681578160857185841B37
:101D9000950BA60BB70B72F484E091E00E94E2046D
:101DA00062E071E00E94D8048091020190910301E9
:101DB0000E943504332009F07894CE01DF91CF9151
:101DC0001F910F91FF90EF90DF90CF90BF90AF9059
:101DD0009F908F907F906F905F904F903F9008956D
:101DE000CF92DF92EF92FF920F931F93CF93DF93E7
:101DF000EC017B016A011FB71078F894A881B981C2
:101E0000109719F435C0A081B1811496ED91FC9121
:101E100015973097C1F72091000130910101A21769
:101E2000B30711F0111107C0112309F44AC07894C7
:101E30008FEF9FEF4EC08A819B81009719F0FC01C4
:101E4000158214823B832A83F901D583C483CD0193
:101E50000E943504E0910001F0910101828193819B
:101E6000892B31F4112381F1789480E090E031C026
:101E7000809100019091010199838883112329F0B9
:101E80008A819B81019709F07894B601CE01F70110
:101E90000995F82E092F8FB7F894198218828A8134
:101EA0009B818230910538F01B821A82FC011582D9
:101EB00014820E943504112351F078948F2D902FB5
:101EC00008C08FEF9FEF05C080E090E002C08F2D2B
:101ED000902FDF91CF911F910F91FF90EF90DF90A6
:101EE000CF900895009100011091010186E291E0E8
:101EF0000E94B704EC01F8019383828378946C8587
:101F00007D854E855F858A859B850E94F00E8FB703
:101F1000F89466E071E0CE010E94CE04E0910201E7
:101F2000F09103010190F081E02DC281D381E09115
:101F30002601F09127013097A1F0209799F2868130
:101F40009781A085B1854E815F8168857985841BE5
:101F5000950BA60BB70B181619061A061B060CF0E4
:101F6000C1CF82E091E00E94E20464E071E00E944F
:101F7000D804A0910201B091030102C0A081B181F7
:101F80001496ED91FC9115973097C1F7CD010E9401
:101F90003504A8CFFC014231B8F49FB79078F8948B
:101FA00050E0440F551FDA01A85DBE4FED93FC933E
:101FB000DA01A054BE4F6D937C9321E030E033836F
:101FC0002283992309F0789408958C017B016A019A
:101FD0008FB7F8940E9496037894E114F10441F0CD
:101FE00020E030E0A90160E070E0CB010E94E70D45
:101FF0008FB7F8940E94EE0C2CB130E0082E02C08E
:10200000359527950A94E2F721703327843091059E
:1020100011F42093F900069711F42093FE0008951F
:10202000862F972F4CB121E030E002C0220F331FE2
:102030006A95E2F7209524232CB90E94FC0F08959D
:10204000862F972F4CB121E030E002C0220F331FC2
:102050006A95E2F724272CB90E94FC0F089597FB9C
:10206000072E16F4009407D077FD09D00E946D105A
:1020700007FC05D03EF4909581959F4F089570958B
:1020800061957F4F0895052E97FB1EF400940E94E2
:102090005A1057FD07D00E94811007FC03D04EF460
:1020A0000C945A1050954095309521953F4F4F4FC5
:1020B0005F4F089590958095709561957F4F8F4FF4
:1020C0009F4F08950E94A310A59F900DB49F900D5F
:1020D000A49F800D911D11240895AA1BBB1B51E1E3
:1020E00007C0AA1FBB1FA617B70710F0A61BB70B88
:1020F000881F991F5A95A9F780959095BC01CD012D
:102100000895A1E21A2EAA1BBB1BFD010DC0AA1F38
:10211000BB1FEE1FFF1FA217B307E407F50720F050
:10212000A21BB30BE40BF50B661F771F881F991FCB
:102130001A9469F760957095809590959B01AC0114
:10214000BD01CF010895A29FB001B39FC001A39F1D
:10215000700D811D1124911DB29F700D811D1124E0
:10216000911D0895DC012D923D924D925D926D92EC
:102170007D928D929D92AD92BD92CD92DD92ED9227
:10218000FD920D931D93CD93DD93FF91EF918DB74C
:102190008D938EB78D938FB78D93ED93FD93882795
:1021A00099270994DC01CB0181309105811D2D9087
:1021B0003D904D905D906D907D908D909D90AD90F7
:1021C000BD90CD90DD90ED90FD900D911D91CD9144
:1021D000DD91ED91FD910D90F894FEBF0FBEEDBF26
:0A21E000ED91FD910994F894FFCFF2
:1021EA00E401E4014C01010251151001111E111BF9
:0E21FA00500B411B411F1101511F510B28C0FA
:00000001FF
