:100000000C942E000C944B000C944B000C944B0061
:100010000C944B000C944B000C944B000C944B0034
:100020000C944B000C944B000C944B000C944B0024
:100030000C944B000C944B000C944B000C944B0014
:100040000C944B000C944B000C944B000C944B0004
:100050000C944B000C944B000C944B0011241FBECD
:10006000CFEFD4E0DEBFCDBF11E0A0E0B1E0E6EF1E
:10007000F2E002C005900D92A631B107D9F721E058
:10008000A6E1B1E001C01D92AC31B207E1F70E94D8
:10009000E5000C9479010C940000CF93DF93CDB769
:1000A000DEB766970FB6F894DEBF0FBECDBF6630E1
:1000B0007105E8F596E1E0E0F1E0DE0111960190CE
:1000C0000D929A95E1F790ED980F9A3050F4E82F41
:1000D000F0E0F097EE0FFF1FEC0FFD1F2181328142
:1000E00002C028E230ECFB01F595E795E451FF4FA3
:1000F000DB01A170BB2760FF02C06FE001C060EFB1
:10010000AF014C5E5F4F822F8F70329522952F701A
:1001100023273F702327109711F08295807F9081CD
:100120009623892B808335964E175F0761F7669675
:100130000FB6F894DEBF0FBECDBFDF91CF9108950B
:10014000E1E6F0E080E8808310828FE08093E700B2
:1001500087EB8093E50087E08093E60080EC809356
:10016000E40008951092C5008BE08093C40088E9F4
:100170008093C10086E08093C2000895EF92FF92C1
:100180000F931F93CF93DF93EC017B01CB0164E6C8
:1001900070E00E940C010AE010E0B8010E940C011E
:1001A000862FBE01805D0E944D002196C701B801D7
:1001B0000E940C01BE01805D0E944D00DF91CF9135
:1001C0001F910F91FF90EF9008950E94A0000E9450
:1001D000B20006EC10E0F801C0816C2F70E084E002
:1001E00090E00E94BE00C695C6956C2F70E082E03C
:1001F00090E00E94BE00C695C6956C2F70E080E02E
:1002000090E00E94BE000E943401813621F765E033
:1002100070E00E944D00DFCF97FB072E16F400948C
:1002200007D077FD09D00E94200107FC05D03EF4DD
:10023000909581959F4F0895709561957F4F089592
:10024000AA1BBB1B51E107C0AA1FBB1FA617B707FC
:1002500010F0A61BB70B881F991F5A95A9F7809518
:100260009095BC01CD0108958091160190911701E0
:100270000E943B010895CF93DF93EC012B8120FF77
:1002800033C026FF0AC02F7B2B838E819F8101966E
:100290009F838E838A8190E029C022FF0FC0E8816E
:1002A000F9818081082E000C990B009719F42062C7
:1002B0002B831AC03196F983E8830EC0EA85FB854B
:1002C000099597FF09C02B81019611F080E201C0CA
:1002D00080E1822B8B8308C02E813F812F5F3F4FAF
:1002E0003F832E83992702C08FEF9FEFDF91CF913D
:0602F0000895F894FFCF11
:1002F60051151001111E111B500B411B411F1101FD
:06030600511F510B28C03D
:00000001FF
