:100000000C942E000C944B000C944B000C944B0061
:100010000C944B000C944B000C944B000C944B0034
:100020000C944B000C944B000C944B000C944B0024
:100030000C944B000C944B000C944B000C944B0014
:100040000C944B000C944B000C944B000C944B0004
:100050000C944B000C944B000C944B0011241FBECD
:10006000CFEFD4E0DEBFCDBF11E0A0E0B1E0E6E02D
:10007000F1E002C005900D92A030B107D9F721E060
:10008000A0E0B1E001C01D92A230B207E1F70E94EA
:1000900078000C9481000C9400008FE08093E700BE
:1000A00087EB8093E50087E08093E60080EC809307
:1000B000E400089585B1806885B91092000115C0EB
:1000C00080910001811111C081E080930001809135
:1000D0000101811106C081E08093F9008093010144
:1000E00004C01092F900109201011F9BE9CFE5CFE7
:1000F000E1E6F0E080E8808310820E944D000E94DB
:060100005A00F894FFCF45
:00000001FF
